{"abi":[{"type":"constructor","inputs":[{"name":"_usdc","type":"address","internalType":"address"}],"stateMutability":"nonpayable"},{"type":"function","name":"POINTS_PER_USDC","inputs":[],"outputs":[{"name":"","type":"uint256","internalType":"uint256"}],"stateMutability":"view"},{"type":"function","name":"SECONDS_PER_MONTH","inputs":[],"outputs":[{"name":"","type":"uint256","internalType":"uint256"}],"stateMutability":"view"},{"type":"function","name":"YIELD_RATE","inputs":[],"outputs":[{"name":"","type":"uint256","internalType":"uint256"}],"stateMutability":"view"},{"type":"function","name":"accumFeesPoints","inputs":[],"outputs":[{"name":"","type":"uint256","internalType":"uint256"}],"stateMutability":"view"},{"type":"function","name":"accumFeesUSDC","inputs":[],"outputs":[{"name":"","type":"uint256","internalType":"uint256"}],"stateMutability":"view"},{"type":"function","name":"addToRewardPool","inputs":[{"name":"amount","type":"uint256","internalType":"uint256"}],"outputs":[],"stateMutability":"nonpayable"},{"type":"function","name":"claimFeeBps","inputs":[],"outputs":[{"name":"","type":"uint256","internalType":"uint256"}],"stateMutability":"view"},{"type":"function","name":"claimWinnings","inputs":[{"name":"marketId","type":"uint256","internalType":"uint256"}],"outputs":[],"stateMutability":"nonpayable"},{"type":"function","name":"claimYield","inputs":[],"outputs":[],"stateMutability":"nonpayable"},{"type":"function","name":"createMarket","inputs":[{"name":"description","type":"string","internalType":"string"},{"name":"category","type":"string","internalType":"string"},{"name":"duration","type":"uint256","internalType":"uint256"}],"outputs":[],"stateMutability":"nonpayable"},{"type":"function","name":"entryFeeBps","inputs":[],"outputs":[{"name":"","type":"uint256","internalType":"uint256"}],"stateMutability":"view"},{"type":"function","name":"getAllMarkets","inputs":[],"outputs":[{"name":"","type":"tuple[]","internalType":"struct NeonSlashVault.Market[]","components":[{"name":"description","type":"string","internalType":"string"},{"name":"category","type":"string","internalType":"string"},{"name":"totalYes","type":"uint256","internalType":"uint256"},{"name":"totalNo","type":"uint256","internalType":"uint256"},{"name":"resolved","type":"bool","internalType":"bool"},{"name":"result","type":"bool","internalType":"bool"},{"name":"deadline","type":"uint256","internalType":"uint256"},{"name":"exists","type":"bool","internalType":"bool"}]}],"stateMutability":"view"},{"type":"function","name":"getPoints","inputs":[{"name":"user","type":"address","internalType":"address"}],"outputs":[{"name":"","type":"uint256","internalType":"uint256"}],"stateMutability":"view"},{"type":"function","name":"lastClaimTimestamp","inputs":[{"name":"","type":"address","internalType":"address"}],"outputs":[{"name":"","type":"uint256","internalType":"uint256"}],"stateMutability":"view"},{"type":"function","name":"marketCount","inputs":[],"outputs":[{"name":"","type":"uint256","internalType":"uint256"}],"stateMutability":"view"},{"type":"function","name":"markets","inputs":[{"name":"","type":"uint256","internalType":"uint256"}],"outputs":[{"name":"description","type":"string","internalType":"string"},{"name":"category","type":"string","internalType":"string"},{"name":"totalYes","type":"uint256","internalType":"uint256"},{"name":"totalNo","type":"uint256","internalType":"uint256"},{"name":"resolved","type":"bool","internalType":"bool"},{"name":"result","type":"bool","internalType":"bool"},{"name":"deadline","type":"uint256","internalType":"uint256"},{"name":"exists","type":"bool","internalType":"bool"}],"stateMutability":"view"},{"type":"function","name":"owner","inputs":[],"outputs":[{"name":"","type":"address","internalType":"address"}],"stateMutability":"view"},{"type":"function","name":"placeBet","inputs":[{"name":"marketId","type":"uint256","internalType":"uint256"},{"name":"prediction","type":"bool","internalType":"bool"},{"name":"amount","type":"uint256","internalType":"uint256"}],"outputs":[],"stateMutability":"nonpayable"},{"type":"function","name":"pointBalances","inputs":[{"name":"","type":"address","internalType":"address"}],"outputs":[{"name":"","type":"uint256","internalType":"uint256"}],"stateMutability":"view"},{"type":"function","name":"redeemPoints","inputs":[{"name":"points","type":"uint256","internalType":"uint256"}],"outputs":[],"stateMutability":"nonpayable"},{"type":"function","name":"redemptionFeeBps","inputs":[],"outputs":[{"name":"","type":"uint256","internalType":"uint256"}],"stateMutability":"view"},{"type":"function","name":"renounceOwnership","inputs":[],"outputs":[],"stateMutability":"nonpayable"},{"type":"function","name":"resolveMarket","inputs":[{"name":"marketId","type":"uint256","internalType":"uint256"},{"name":"result","type":"bool","internalType":"bool"}],"outputs":[],"stateMutability":"nonpayable"},{"type":"function","name":"rewardPool","inputs":[],"outputs":[{"name":"","type":"uint256","internalType":"uint256"}],"stateMutability":"view"},{"type":"function","name":"setFees","inputs":[{"name":"_entry","type":"uint256","internalType":"uint256"},{"name":"_claim","type":"uint256","internalType":"uint256"},{"name":"_withdraw","type":"uint256","internalType":"uint256"},{"name":"_redemption","type":"uint256","internalType":"uint256"}],"outputs":[],"stateMutability":"nonpayable"},{"type":"function","name":"stake","inputs":[{"name":"amount","type":"uint256","internalType":"uint256"}],"outputs":[],"stateMutability":"nonpayable"},{"type":"function","name":"stakedUSDC","inputs":[{"name":"","type":"address","internalType":"address"}],"outputs":[{"name":"","type":"uint256","internalType":"uint256"}],"stateMutability":"view"},{"type":"function","name":"transferOwnership","inputs":[{"name":"newOwner","type":"address","internalType":"address"}],"outputs":[],"stateMutability":"nonpayable"},{"type":"function","name":"usdc","inputs":[],"outputs":[{"name":"","type":"address","internalType":"contract IERC20"}],"stateMutability":"view"},{"type":"function","name":"userBets","inputs":[{"name":"","type":"uint256","internalType":"uint256"},{"name":"","type":"address","internalType":"address"}],"outputs":[{"name":"amount","type":"uint256","internalType":"uint256"},{"name":"prediction","type":"bool","internalType":"bool"},{"name":"claimed","type":"bool","internalType":"bool"}],"stateMutability":"view"},{"type":"function","name":"withdraw","inputs":[{"name":"amount","type":"uint256","internalType":"uint256"}],"outputs":[],"stateMutability":"nonpayable"},{"type":"function","name":"withdrawFeeBps","inputs":[],"outputs":[{"name":"","type":"uint256","internalType":"uint256"}],"stateMutability":"view"},{"type":"function","name":"withdrawFees","inputs":[],"outputs":[],"stateMutability":"nonpayable"},{"type":"event","name":"BetPlaced","inputs":[{"name":"marketId","type":"uint256","indexed":true,"internalType":"uint256"},{"name":"user","type":"address","indexed":true,"internalType":"address"},{"name":"prediction","type":"bool","indexed":false,"internalType":"bool"},{"name":"amount","type":"uint256","indexed":false,"internalType":"uint256"}],"anonymous":false},{"type":"event","name":"FeesUpdated","inputs":[{"name":"entry","type":"uint256","indexed":false,"internalType":"uint256"},{"name":"claim","type":"uint256","indexed":false,"internalType":"uint256"},{"name":"withdraw","type":"uint256","indexed":false,"internalType":"uint256"},{"name":"redemption","type":"uint256","indexed":false,"internalType":"uint256"}],"anonymous":false},{"type":"event","name":"MarketCreated","inputs":[{"name":"marketId","type":"uint256","indexed":true,"internalType":"uint256"},{"name":"description","type":"string","indexed":false,"internalType":"string"},{"name":"category","type":"string","indexed":false,"internalType":"string"},{"name":"deadline","type":"uint256","indexed":false,"internalType":"uint256"}],"anonymous":false},{"type":"event","name":"MarketResolved","inputs":[{"name":"marketId","type":"uint256","indexed":true,"internalType":"uint256"},{"name":"result","type":"bool","indexed":false,"internalType":"bool"}],"anonymous":false},{"type":"event","name":"OwnershipTransferred","inputs":[{"name":"previousOwner","type":"address","indexed":true,"internalType":"address"},{"name":"newOwner","type":"address","indexed":true,"internalType":"address"}],"anonymous":false},{"type":"event","name":"PointsClaimed","inputs":[{"name":"user","type":"address","indexed":true,"internalType":"address"},{"name":"points","type":"uint256","indexed":false,"internalType":"uint256"}],"anonymous":false},{"type":"event","name":"RewardClaimed","inputs":[{"name":"user","type":"address","indexed":true,"internalType":"address"},{"name":"pointsRedeemed","type":"uint256","indexed":false,"internalType":"uint256"},{"name":"usdcReward","type":"uint256","indexed":false,"internalType":"uint256"}],"anonymous":false},{"type":"event","name":"Staked","inputs":[{"name":"user","type":"address","indexed":true,"internalType":"address"},{"name":"amount","type":"uint256","indexed":false,"internalType":"uint256"},{"name":"pointsAdded","type":"uint256","indexed":false,"internalType":"uint256"}],"anonymous":false},{"type":"event","name":"TreasuryWithdrawn","inputs":[{"name":"to","type":"address","indexed":false,"internalType":"address"},{"name":"amount","type":"uint256","indexed":false,"internalType":"uint256"}],"anonymous":false},{"type":"error","name":"OwnableInvalidOwner","inputs":[{"name":"owner","type":"address","internalType":"address"}]},{"type":"error","name":"OwnableUnauthorizedAccount","inputs":[{"name":"account","type":"address","internalType":"address"}]},{"type":"error","name":"ReentrancyGuardReentrantCall","inputs":[]}],"bytecode":{"object":"0x60a060405260c860095560c8600a556064600b5560c8600c55348015610023575f5ffd5b5060405161380738038061380783398181016040528101906100459190610226565b335f73ffffffffffffffffffffffffffffffffffffffff168173ffffffffffffffffffffffffffffffffffffffff16036100b6575f6040517f1e4fbdf70000000000000000000000000000000000000000000000000000000081526004016100ad9190610260565b60405180910390fd5b6100c58161010760201b60201c565b50600180819055508073ffffffffffffffffffffffffffffffffffffffff1660808173ffffffffffffffffffffffffffffffffffffffff168152505050610279565b5f5f5f9054906101000a900473ffffffffffffffffffffffffffffffffffffffff169050815f5f6101000a81548173ffffffffffffffffffffffffffffffffffffffff021916908373ffffffffffffffffffffffffffffffffffffffff1602179055508173ffffffffffffffffffffffffffffffffffffffff168173ffffffffffffffffffffffffffffffffffffffff167f8be0079c531659141344cd1fd0a4f28419497f9722a3daafe3b4186f6b6457e060405160405180910390a35050565b5f5ffd5b5f73ffffffffffffffffffffffffffffffffffffffff82169050919050565b5f6101f5826101cc565b9050919050565b610205816101eb565b811461020f575f5ffd5b50565b5f81519050610220816101fc565b92915050565b5f6020828403121561023b5761023a6101c8565b5b5f61024884828501610212565b91505092915050565b61025a816101eb565b82525050565b5f6020820190506102735f830184610251565b92915050565b6080516135536102b45f395f8181610b4d01528181610bf601528181610c4a015281816112980152818161182c0152611ab601526135535ff3fe608060405234801561000f575f5ffd5b50600436106101f9575f3560e01c80637aca2b5911610118578063bd9d518b116100ab578063e92e92e71161007a578063e92e92e71461055e578063ec9790821461057a578063ee204abb14610598578063f2fde38b146105c8578063f98b7783146105e4576101f9565b8063bd9d518b146104c2578063c75f74b8146104f2578063d68002f314610522578063e852090a14610540576101f9565b8063a694fc3a116100e7578063a694fc3a14610435578063b0772d0b14610451578063b1283e771461046f578063b95ffbce146104a6576101f9565b80637aca2b59146103a95780637d06a8e1146103c75780638da5cb5b146103f9578063a081be9c14610417576101f9565b8063578334ee116101905780636963d7ea1161015f5780636963d7ea146103475780636fcba37714610365578063715018a6146103815780637a526f4e1461038b576101f9565b8063578334ee146102d357806357bde446146102f157806366666aa91461030d578063677bd9ff1461032b576101f9565b80632e1a7d4d116101cc5780632e1a7d4d146102855780633e413bee146102a1578063406cf229146102bf578063476343ee146102c9576101f9565b806310786deb146101fd57806318650a1e1461021b5780631a38cac61461023957806327f30a0814610255575b5f5ffd5b610205610600565b6040516102129190612261565b60405180910390f35b610223610607565b6040516102309190612261565b60405180910390f35b610253600480360381019061024e91906122ea565b61060c565b005b61026f600480360381019061026a9190612394565b610a0d565b60405161027c9190612261565b60405180910390f35b61029f600480360381019061029a91906123bf565b610a22565b005b6102a9610bf4565b6040516102b69190612445565b60405180910390f35b6102c7610c18565b005b6102d1610c33565b005b6102db610d2e565b6040516102e89190612261565b60405180910390f35b61030b6004803603810190610306919061245e565b610d34565b005b610315610e66565b6040516103229190612261565b60405180910390f35b610345600480360381019061034091906123bf565b610e6c565b005b61034f611149565b60405161035c9190612261565b60405180910390f35b61037f600480360381019061037a919061249c565b61114f565b005b6103896111b6565b005b6103936111c9565b6040516103a09190612261565b60405180910390f35b6103b16111cf565b6040516103be9190612261565b60405180910390f35b6103e160048036038101906103dc9190612500565b6111d5565b6040516103f09392919061254d565b60405180910390f35b61040161121f565b60405161040e9190612591565b60405180910390f35b61041f611246565b60405161042c9190612261565b60405180910390f35b61044f600480360381019061044a91906123bf565b61124c565b005b61045961145d565b60405161046691906127a7565b60405180910390f35b610489600480360381019061048491906123bf565b6116b5565b60405161049d98979695949392919061280f565b60405180910390f35b6104c060048036038101906104bb91906123bf565b61182a565b005b6104dc60048036038101906104d79190612394565b6118e3565b6040516104e99190612261565b60405180910390f35b61050c60048036038101906105079190612394565b6118f8565b6040516105199190612261565b60405180910390f35b61052a61190d565b6040516105379190612261565b60405180910390f35b610548611913565b6040516105559190612261565b60405180910390f35b610578600480360381019061057391906123bf565b611918565b005b610582611bae565b60405161058f9190612261565b60405180910390f35b6105b260048036038101906105ad9190612394565b611bb4565b6040516105bf9190612261565b60405180910390f35b6105e260048036038101906105dd9190612394565b611cc7565b005b6105fe60048036038101906105f991906129c5565b611d4b565b005b62278d0081565b606481565b610614611ec6565b5f60055f8581526020019081526020015f209050806006015f9054906101000a900460ff16610678576040517f08c379a000000000000000000000000000000000000000000000000000000000815260040161066f90612a97565b60405180910390fd5b806004015f9054906101000a900460ff16156106c9576040517f08c379a00000000000000000000000000000000000000000000000000000000081526004016106c090612aff565b60405180910390fd5b8060050154421061070f576040517f08c379a000000000000000000000000000000000000000000000000000000000815260040161070690612b67565b60405180910390fd5b8160025f3373ffffffffffffffffffffffffffffffffffffffff1673ffffffffffffffffffffffffffffffffffffffff1681526020019081526020015f2054101561078f576040517f08c379a000000000000000000000000000000000000000000000000000000000815260040161078690612bcf565b60405180910390fd5b5f60075f8681526020019081526020015f205f3373ffffffffffffffffffffffffffffffffffffffff1673ffffffffffffffffffffffffffffffffffffffff1681526020019081526020015f205f01541461081f576040517f08c379a000000000000000000000000000000000000000000000000000000000815260040161081690612c37565b60405180910390fd5b5f612710600954846108319190612c82565b61083b9190612cf0565b90505f818461084a9190612d20565b905081600e5f82825461085d9190612d53565b925050819055508360025f3373ffffffffffffffffffffffffffffffffffffffff1673ffffffffffffffffffffffffffffffffffffffff1681526020019081526020015f205f8282546108b09190612d20565b9250508190555084156108dc5780836002015f8282546108d09190612d53565b925050819055506108f7565b80836003015f8282546108ef9190612d53565b925050819055505b604051806060016040528082815260200186151581526020015f151581525060075f8881526020019081526020015f205f3373ffffffffffffffffffffffffffffffffffffffff1673ffffffffffffffffffffffffffffffffffffffff1681526020019081526020015f205f820151815f01556020820151816001015f6101000a81548160ff02191690831515021790555060408201518160010160016101000a81548160ff0219169083151502179055509050503373ffffffffffffffffffffffffffffffffffffffff16867f4af71b021e799c62c158bd54636ca8da2fa26115a21a2dc6efe486ec104fd15f87846040516109f5929190612d86565b60405180910390a3505050610a08611f0c565b505050565b6002602052805f5260405f205f915090505481565b610a2a611ec6565b8060035f3373ffffffffffffffffffffffffffffffffffffffff1673ffffffffffffffffffffffffffffffffffffffff1681526020019081526020015f20541015610aaa576040517f08c379a0000000000000000000000000000000000000000000000000000000008152600401610aa190612df7565b60405180910390fd5b610ab333611f15565b8060035f3373ffffffffffffffffffffffffffffffffffffffff1673ffffffffffffffffffffffffffffffffffffffff1681526020019081526020015f205f828254610aff9190612d20565b925050819055505f612710600b5483610b189190612c82565b610b229190612cf0565b90505f8183610b319190612d20565b905081600d5f828254610b449190612d53565b925050819055507f000000000000000000000000000000000000000000000000000000000000000073ffffffffffffffffffffffffffffffffffffffff1663a9059cbb33836040518363ffffffff1660e01b8152600401610ba6929190612e15565b6020604051808303815f875af1158015610bc2573d5f5f3e3d5ffd5b505050506040513d601f19601f82011682018060405250810190610be69190612e50565b505050610bf1611f0c565b50565b7f000000000000000000000000000000000000000000000000000000000000000081565b610c20611ec6565b610c2933611f15565b610c31611f0c565b565b610c3b6120b5565b5f600d5490505f600d819055507f000000000000000000000000000000000000000000000000000000000000000073ffffffffffffffffffffffffffffffffffffffff1663a9059cbb610c8c61121f565b836040518363ffffffff1660e01b8152600401610caa929190612e15565b6020604051808303815f875af1158015610cc6573d5f5f3e3d5ffd5b505050506040513d601f19601f82011682018060405250810190610cea9190612e50565b507f41fdd680478135993bc53fb2ffaf9560951b57ef62ff6badd02b61e018b4f17f610d1461121f565b82604051610d23929190612e15565b60405180910390a150565b60095481565b610d3c6120b5565b5f60055f8481526020019081526020015f209050806006015f9054906101000a900460ff16610da0576040517f08c379a0000000000000000000000000000000000000000000000000000000008152600401610d9790612a97565b60405180910390fd5b806004015f9054906101000a900460ff1615610df1576040517f08c379a0000000000000000000000000000000000000000000000000000000008152600401610de890612aff565b60405180910390fd5b6001816004015f6101000a81548160ff021916908315150217905550818160040160016101000a81548160ff021916908315150217905550827f4927fe38919783250023d27e65a3e56b6b5c3e49364e51674a41ef08d62460d983604051610e599190612e7b565b60405180910390a2505050565b60085481565b610e74611ec6565b5f60055f8381526020019081526020015f209050806004015f9054906101000a900460ff16610ed8576040517f08c379a0000000000000000000000000000000000000000000000000000000008152600401610ecf90612ede565b60405180910390fd5b5f60075f8481526020019081526020015f205f3373ffffffffffffffffffffffffffffffffffffffff1673ffffffffffffffffffffffffffffffffffffffff1681526020019081526020015f2090505f815f015411610f6c576040517f08c379a0000000000000000000000000000000000000000000000000000000008152600401610f6390612f46565b60405180910390fd5b8060010160019054906101000a900460ff1615610fbe576040517f08c379a0000000000000000000000000000000000000000000000000000000008152600401610fb590612fae565b60405180910390fd5b8160040160019054906101000a900460ff161515816001015f9054906101000a900460ff16151514611025576040517f08c379a000000000000000000000000000000000000000000000000000000000815260040161101c90613016565b60405180910390fd5b60018160010160016101000a81548160ff0219169083151502179055505f826003015483600201546110579190612d53565b90505f8360040160019054906101000a900460ff1661107a578360030154611080565b83600201545b90505f8183855f01546110939190612c82565b61109d9190612cf0565b90505f612710600a54836110b19190612c82565b6110bb9190612cf0565b90505f81836110ca9190612d20565b905081600e5f8282546110dd9190612d53565b925050819055508060025f3373ffffffffffffffffffffffffffffffffffffffff1673ffffffffffffffffffffffffffffffffffffffff1681526020019081526020015f205f8282546111309190612d53565b9250508190555050505050505050611146611f0c565b50565b600d5481565b6111576120b5565b8360098190555082600a8190555081600b8190555080600c819055507f16e6f67290546b8dd0e587f4b7f67d4f61932ae17ffd8c60d3509dbc05c175fe848484846040516111a89493929190613034565b60405180910390a150505050565b6111be6120b5565b6111c75f61213c565b565b600a5481565b600b5481565b6007602052815f5260405f20602052805f5260405f205f9150915050805f015490806001015f9054906101000a900460ff16908060010160019054906101000a900460ff16905083565b5f5f5f9054906101000a900473ffffffffffffffffffffffffffffffffffffffff16905090565b600e5481565b611254611ec6565b5f8111611296576040517f08c379a000000000000000000000000000000000000000000000000000000000815260040161128d906130c1565b60405180910390fd5b7f000000000000000000000000000000000000000000000000000000000000000073ffffffffffffffffffffffffffffffffffffffff166323b872dd3330846040518463ffffffff1660e01b81526004016112f3939291906130df565b6020604051808303815f875af115801561130f573d5f5f3e3d5ffd5b505050506040513d601f19601f820116820180604052508101906113339190612e50565b5061133d33611f15565b8060035f3373ffffffffffffffffffffffffffffffffffffffff1673ffffffffffffffffffffffffffffffffffffffff1681526020019081526020015f205f8282546113899190612d53565b925050819055505f620f42406064836113a29190612c82565b6113ac9190612cf0565b90508060025f3373ffffffffffffffffffffffffffffffffffffffff1673ffffffffffffffffffffffffffffffffffffffff1681526020019081526020015f205f8282546113fa9190612d53565b925050819055503373ffffffffffffffffffffffffffffffffffffffff167f1449c6dd7851abc30abf37f57715f492010519147cc2652fbc38202c18a6ee908383604051611449929190613114565b60405180910390a25061145a611f0c565b50565b60605f60065467ffffffffffffffff81111561147c5761147b6128a1565b5b6040519080825280602002602001820160405280156114b557816020015b6114a2612204565b81526020019060019003908161149a5790505b5090505f600190505b60065481116116ad5760055f8281526020019081526020015f20604051806101000160405290815f820180546114f390613168565b80601f016020809104026020016040519081016040528092919081815260200182805461151f90613168565b801561156a5780601f106115415761010080835404028352916020019161156a565b820191905f5260205f20905b81548152906001019060200180831161154d57829003601f168201915b5050505050815260200160018201805461158390613168565b80601f01602080910402602001604051908101604052809291908181526020018280546115af90613168565b80156115fa5780601f106115d1576101008083540402835291602001916115fa565b820191905f5260205f20905b8154815290600101906020018083116115dd57829003601f168201915b505050505081526020016002820154815260200160038201548152602001600482015f9054906101000a900460ff161515151581526020016004820160019054906101000a900460ff1615151515815260200160058201548152602001600682015f9054906101000a900460ff1615151515815250508260018361167e9190612d20565b8151811061168f5761168e613198565b5b602002602001018190525080806116a5906131c5565b9150506114be565b508091505090565b6005602052805f5260405f205f91509050805f0180546116d490613168565b80601f016020809104026020016040519081016040528092919081815260200182805461170090613168565b801561174b5780601f106117225761010080835404028352916020019161174b565b820191905f5260205f20905b81548152906001019060200180831161172e57829003601f168201915b50505050509080600101805461176090613168565b80601f016020809104026020016040519081016040528092919081815260200182805461178c90613168565b80156117d75780601f106117ae576101008083540402835291602001916117d7565b820191905f5260205f20905b8154815290600101906020018083116117ba57829003601f168201915b505050505090806002015490806003015490806004015f9054906101000a900460ff16908060040160019054906101000a900460ff1690806005015490806006015f9054906101000a900460ff16905088565b7f000000000000000000000000000000000000000000000000000000000000000073ffffffffffffffffffffffffffffffffffffffff166323b872dd3330846040518463ffffffff1660e01b8152600401611887939291906130df565b6020604051808303815f875af11580156118a3573d5f5f3e3d5ffd5b505050506040513d601f19601f820116820180604052508101906118c79190612e50565b508060085f8282546118d99190612d53565b9250508190555050565b6004602052805f5260405f205f915090505481565b6003602052805f5260405f205f915090505481565b600c5481565b600a81565b611920611ec6565b8060025f3373ffffffffffffffffffffffffffffffffffffffff1673ffffffffffffffffffffffffffffffffffffffff1681526020019081526020015f205410156119a0576040517f08c379a000000000000000000000000000000000000000000000000000000000815260040161199790612bcf565b60405180910390fd5b5f6103e8620f4240836119b39190612c82565b6119bd9190612cf0565b90505f612710600c54836119d19190612c82565b6119db9190612cf0565b90505f81836119ea9190612d20565b9050806008541015611a31576040517f08c379a0000000000000000000000000000000000000000000000000000000008152600401611a2890613256565b60405180910390fd5b8360025f3373ffffffffffffffffffffffffffffffffffffffff1673ffffffffffffffffffffffffffffffffffffffff1681526020019081526020015f205f828254611a7d9190612d20565b925050819055508060085f828254611a959190612d20565b9250508190555081600d5f828254611aad9190612d53565b925050819055507f000000000000000000000000000000000000000000000000000000000000000073ffffffffffffffffffffffffffffffffffffffff1663a9059cbb33836040518363ffffffff1660e01b8152600401611b0f929190612e15565b6020604051808303815f875af1158015611b2b573d5f5f3e3d5ffd5b505050506040513d601f19601f82011682018060405250810190611b4f9190612e50565b503373ffffffffffffffffffffffffffffffffffffffff167ff01da32686223933d8a18a391060918c7f11a3648639edd87ae013e2e27317438583604051611b98929190613114565b60405180910390a2505050611bab611f0c565b50565b60065481565b5f5f60045f8473ffffffffffffffffffffffffffffffffffffffff1673ffffffffffffffffffffffffffffffffffffffff1681526020019081526020015f205442611bff9190612d20565b90505f620f424062278d00611c149190612c82565b82600a60035f8873ffffffffffffffffffffffffffffffffffffffff1673ffffffffffffffffffffffffffffffffffffffff1681526020019081526020015f2054611c5f9190612c82565b611c699190612c82565b611c739190612cf0565b90508060025f8673ffffffffffffffffffffffffffffffffffffffff1673ffffffffffffffffffffffffffffffffffffffff1681526020019081526020015f2054611cbe9190612d53565b92505050919050565b611ccf6120b5565b5f73ffffffffffffffffffffffffffffffffffffffff168173ffffffffffffffffffffffffffffffffffffffff1603611d3f575f6040517f1e4fbdf7000000000000000000000000000000000000000000000000000000008152600401611d369190612591565b60405180910390fd5b611d488161213c565b50565b611d536120b5565b5f60065f8154611d62906131c5565b91905081905590506040518061010001604052808581526020018481526020015f81526020015f81526020015f151581526020015f151581526020018342611daa9190612d53565b81526020016001151581525060055f8381526020019081526020015f205f820151815f019081611dda919061340b565b506020820151816001019081611df0919061340b565b5060408201518160020155606082015181600301556080820151816004015f6101000a81548160ff02191690831515021790555060a08201518160040160016101000a81548160ff02191690831515021790555060c0820151816005015560e0820151816006015f6101000a81548160ff021916908315150217905550905050807f5efbba1029bf313d611dcc18db8c401465f4a191b59cc799da765ddbafa68e70858560055f8681526020019081526020015f2060050154604051611eb8939291906134da565b60405180910390a250505050565b600260015403611f02576040517f3ee5aeb500000000000000000000000000000000000000000000000000000000815260040160405180910390fd5b6002600181905550565b60018081905550565b5f60035f8373ffffffffffffffffffffffffffffffffffffffff1673ffffffffffffffffffffffffffffffffffffffff1681526020019081526020015f20541115612070575f60045f8373ffffffffffffffffffffffffffffffffffffffff1673ffffffffffffffffffffffffffffffffffffffff1681526020019081526020015f205442611fa49190612d20565b90505f620f424062278d00611fb99190612c82565b82600a60035f8773ffffffffffffffffffffffffffffffffffffffff1673ffffffffffffffffffffffffffffffffffffffff1681526020019081526020015f20546120049190612c82565b61200e9190612c82565b6120189190612cf0565b90508060025f8573ffffffffffffffffffffffffffffffffffffffff1673ffffffffffffffffffffffffffffffffffffffff1681526020019081526020015f205f8282546120669190612d53565b9250508190555050505b4260045f8373ffffffffffffffffffffffffffffffffffffffff1673ffffffffffffffffffffffffffffffffffffffff1681526020019081526020015f208190555050565b6120bd6121fd565b73ffffffffffffffffffffffffffffffffffffffff166120db61121f565b73ffffffffffffffffffffffffffffffffffffffff161461213a576120fe6121fd565b6040517f118cdaa70000000000000000000000000000000000000000000000000000000081526004016121319190612591565b60405180910390fd5b565b5f5f5f9054906101000a900473ffffffffffffffffffffffffffffffffffffffff169050815f5f6101000a81548173ffffffffffffffffffffffffffffffffffffffff021916908373ffffffffffffffffffffffffffffffffffffffff1602179055508173ffffffffffffffffffffffffffffffffffffffff168173ffffffffffffffffffffffffffffffffffffffff167f8be0079c531659141344cd1fd0a4f28419497f9722a3daafe3b4186f6b6457e060405160405180910390a35050565b5f33905090565b60405180610100016040528060608152602001606081526020015f81526020015f81526020015f151581526020015f151581526020015f81526020015f151581525090565b5f819050919050565b61225b81612249565b82525050565b5f6020820190506122745f830184612252565b92915050565b5f604051905090565b5f5ffd5b5f5ffd5b61229481612249565b811461229e575f5ffd5b50565b5f813590506122af8161228b565b92915050565b5f8115159050919050565b6122c9816122b5565b81146122d3575f5ffd5b50565b5f813590506122e4816122c0565b92915050565b5f5f5f6060848603121561230157612300612283565b5b5f61230e868287016122a1565b935050602061231f868287016122d6565b9250506040612330868287016122a1565b9150509250925092565b5f73ffffffffffffffffffffffffffffffffffffffff82169050919050565b5f6123638261233a565b9050919050565b61237381612359565b811461237d575f5ffd5b50565b5f8135905061238e8161236a565b92915050565b5f602082840312156123a9576123a8612283565b5b5f6123b684828501612380565b91505092915050565b5f602082840312156123d4576123d3612283565b5b5f6123e1848285016122a1565b91505092915050565b5f819050919050565b5f61240d6124086124038461233a565b6123ea565b61233a565b9050919050565b5f61241e826123f3565b9050919050565b5f61242f82612414565b9050919050565b61243f81612425565b82525050565b5f6020820190506124585f830184612436565b92915050565b5f5f6040838503121561247457612473612283565b5b5f612481858286016122a1565b9250506020612492858286016122d6565b9150509250929050565b5f5f5f5f608085870312156124b4576124b3612283565b5b5f6124c1878288016122a1565b94505060206124d2878288016122a1565b93505060406124e3878288016122a1565b92505060606124f4878288016122a1565b91505092959194509250565b5f5f6040838503121561251657612515612283565b5b5f612523858286016122a1565b925050602061253485828601612380565b9150509250929050565b612547816122b5565b82525050565b5f6060820190506125605f830186612252565b61256d602083018561253e565b61257a604083018461253e565b949350505050565b61258b81612359565b82525050565b5f6020820190506125a45f830184612582565b92915050565b5f81519050919050565b5f82825260208201905092915050565b5f819050602082019050919050565b5f81519050919050565b5f82825260208201905092915050565b8281835e5f83830152505050565b5f601f19601f8301169050919050565b5f612615826125d3565b61261f81856125dd565b935061262f8185602086016125ed565b612638816125fb565b840191505092915050565b61264c81612249565b82525050565b61265b816122b5565b82525050565b5f61010083015f8301518482035f86015261267c828261260b565b91505060208301518482036020860152612696828261260b565b91505060408301516126ab6040860182612643565b5060608301516126be6060860182612643565b5060808301516126d16080860182612652565b5060a08301516126e460a0860182612652565b5060c08301516126f760c0860182612643565b5060e083015161270a60e0860182612652565b508091505092915050565b5f6127208383612661565b905092915050565b5f602082019050919050565b5f61273e826125aa565b61274881856125b4565b93508360208202850161275a856125c4565b805f5b8581101561279557848403895281516127768582612715565b945061278183612728565b925060208a0199505060018101905061275d565b50829750879550505050505092915050565b5f6020820190508181035f8301526127bf8184612734565b905092915050565b5f82825260208201905092915050565b5f6127e1826125d3565b6127eb81856127c7565b93506127fb8185602086016125ed565b612804816125fb565b840191505092915050565b5f610100820190508181035f830152612828818b6127d7565b9050818103602083015261283c818a6127d7565b905061284b6040830189612252565b6128586060830188612252565b612865608083018761253e565b61287260a083018661253e565b61287f60c0830185612252565b61288c60e083018461253e565b9998505050505050505050565b5f5ffd5b5f5ffd5b7f4e487b71000000000000000000000000000000000000000000000000000000005f52604160045260245ffd5b6128d7826125fb565b810181811067ffffffffffffffff821117156128f6576128f56128a1565b5b80604052505050565b5f61290861227a565b905061291482826128ce565b919050565b5f67ffffffffffffffff821115612933576129326128a1565b5b61293c826125fb565b9050602081019050919050565b828183375f83830152505050565b5f61296961296484612919565b6128ff565b9050828152602081018484840111156129855761298461289d565b5b612990848285612949565b509392505050565b5f82601f8301126129ac576129ab612899565b5b81356129bc848260208601612957565b91505092915050565b5f5f5f606084860312156129dc576129db612283565b5b5f84013567ffffffffffffffff8111156129f9576129f8612287565b5b612a0586828701612998565b935050602084013567ffffffffffffffff811115612a2657612a25612287565b5b612a3286828701612998565b9250506040612a43868287016122a1565b9150509250925092565b7f4d61726b657420646f6573206e6f7420657869737400000000000000000000005f82015250565b5f612a816015836127c7565b9150612a8c82612a4d565b602082019050919050565b5f6020820190508181035f830152612aae81612a75565b9050919050565b7f4d61726b657420616c7265616479207265736f6c7665640000000000000000005f82015250565b5f612ae96017836127c7565b9150612af482612ab5565b602082019050919050565b5f6020820190508181035f830152612b1681612add565b9050919050565b7f42657474696e6720706572696f64206f766572000000000000000000000000005f82015250565b5f612b516013836127c7565b9150612b5c82612b1d565b602082019050919050565b5f6020820190508181035f830152612b7e81612b45565b9050919050565b7f496e73756666696369656e7420706f696e7473000000000000000000000000005f82015250565b5f612bb96013836127c7565b9150612bc482612b85565b602082019050919050565b5f6020820190508181035f830152612be681612bad565b9050919050565b7f416c726561647920626574206f6e2074686973206d61726b65740000000000005f82015250565b5f612c21601a836127c7565b9150612c2c82612bed565b602082019050919050565b5f6020820190508181035f830152612c4e81612c15565b9050919050565b7f4e487b71000000000000000000000000000000000000000000000000000000005f52601160045260245ffd5b5f612c8c82612249565b9150612c9783612249565b9250828202612ca581612249565b91508282048414831517612cbc57612cbb612c55565b5b5092915050565b7f4e487b71000000000000000000000000000000000000000000000000000000005f52601260045260245ffd5b5f612cfa82612249565b9150612d0583612249565b925082612d1557612d14612cc3565b5b828204905092915050565b5f612d2a82612249565b9150612d3583612249565b9250828203905081811115612d4d57612d4c612c55565b5b92915050565b5f612d5d82612249565b9150612d6883612249565b9250828201905080821115612d8057612d7f612c55565b5b92915050565b5f604082019050612d995f83018561253e565b612da66020830184612252565b9392505050565b7f496e73756666696369656e74207374616b65642062616c616e636500000000005f82015250565b5f612de1601b836127c7565b9150612dec82612dad565b602082019050919050565b5f6020820190508181035f830152612e0e81612dd5565b9050919050565b5f604082019050612e285f830185612582565b612e356020830184612252565b9392505050565b5f81519050612e4a816122c0565b92915050565b5f60208284031215612e6557612e64612283565b5b5f612e7284828501612e3c565b91505092915050565b5f602082019050612e8e5f83018461253e565b92915050565b7f4d61726b6574206e6f74207265736f6c766564000000000000000000000000005f82015250565b5f612ec86013836127c7565b9150612ed382612e94565b602082019050919050565b5f6020820190508181035f830152612ef581612ebc565b9050919050565b7f4e6f2062657420666f756e6400000000000000000000000000000000000000005f82015250565b5f612f30600c836127c7565b9150612f3b82612efc565b602082019050919050565b5f6020820190508181035f830152612f5d81612f24565b9050919050565b7f416c726561647920636c61696d656400000000000000000000000000000000005f82015250565b5f612f98600f836127c7565b9150612fa382612f64565b602082019050919050565b5f6020820190508181035f830152612fc581612f8c565b9050919050565b7f50726564696374696f6e20696e636f72726563740000000000000000000000005f82015250565b5f6130006014836127c7565b915061300b82612fcc565b602082019050919050565b5f6020820190508181035f83015261302d81612ff4565b9050919050565b5f6080820190506130475f830187612252565b6130546020830186612252565b6130616040830185612252565b61306e6060830184612252565b95945050505050565b7f416d6f756e74206d757374206265203e203000000000000000000000000000005f82015250565b5f6130ab6012836127c7565b91506130b682613077565b602082019050919050565b5f6020820190508181035f8301526130d88161309f565b9050919050565b5f6060820190506130f25f830186612582565b6130ff6020830185612582565b61310c6040830184612252565b949350505050565b5f6040820190506131275f830185612252565b6131346020830184612252565b9392505050565b7f4e487b71000000000000000000000000000000000000000000000000000000005f52602260045260245ffd5b5f600282049050600182168061317f57607f821691505b6020821081036131925761319161313b565b5b50919050565b7f4e487b71000000000000000000000000000000000000000000000000000000005f52603260045260245ffd5b5f6131cf82612249565b91507fffffffffffffffffffffffffffffffffffffffffffffffffffffffffffffffff820361320157613200612c55565b5b600182019050919050565b7f52657761726420706f6f6c206465706c657465640000000000000000000000005f82015250565b5f6132406014836127c7565b915061324b8261320c565b602082019050919050565b5f6020820190508181035f83015261326d81613234565b9050919050565b5f819050815f5260205f209050919050565b5f6020601f8301049050919050565b5f82821b905092915050565b5f600883026132d07fffffffffffffffffffffffffffffffffffffffffffffffffffffffffffffffff82613295565b6132da8683613295565b95508019841693508086168417925050509392505050565b5f61330c61330761330284612249565b6123ea565b612249565b9050919050565b5f819050919050565b613325836132f2565b61333961333182613313565b8484546132a1565b825550505050565b5f5f905090565b613350613341565b61335b81848461331c565b505050565b5b8181101561337e576133735f82613348565b600181019050613361565b5050565b601f8211156133c35761339481613274565b61339d84613286565b810160208510156133ac578190505b6133c06133b885613286565b830182613360565b50505b505050565b5f82821c905092915050565b5f6133e35f19846008026133c8565b1980831691505092915050565b5f6133fb83836133d4565b9150826002028217905092915050565b613414826125d3565b67ffffffffffffffff81111561342d5761342c6128a1565b5b6134378254613168565b613442828285613382565b5f60209050601f831160018114613473575f8415613461578287015190505b61346b85826133f0565b8655506134d2565b601f19841661348186613274565b5f5b828110156134a857848901518255600182019150602085019450602081019050613483565b868310156134c557848901516134c1601f8916826133d4565b8355505b6001600288020188555050505b505050505050565b5f6060820190508181035f8301526134f281866127d7565b9050818103602083015261350681856127d7565b90506135156040830184612252565b94935050505056fea2646970667358221220f1d165cbc55eb4b4d22f222b7b526921baf9decc673f6610166eb67c8f89a31d64736f6c634300081e0033","linkReferences":{}},"methodIdentifiers":{"POINTS_PER_USDC()":"18650a1e","SECONDS_PER_MONTH()":"10786deb","YIELD_RATE()":"e852090a","accumFeesPoints()":"a081be9c","accumFeesUSDC()":"6963d7ea","addToRewardPool(uint256)":"b95ffbce","claimFeeBps()":"7a526f4e","claimWinnings(uint256)":"677bd9ff","claimYield()":"406cf229","createMarket(string,string,uint256)":"f98b7783","entryFeeBps()":"578334ee","getAllMarkets()":"b0772d0b","getPoints(address)":"ee204abb","lastClaimTimestamp(address)":"bd9d518b","marketCount()":"ec979082","markets(uint256)":"b1283e77","owner()":"8da5cb5b","placeBet(uint256,bool,uint256)":"1a38cac6","pointBalances(address)":"27f30a08","redeemPoints(uint256)":"e92e92e7","redemptionFeeBps()":"d68002f3","renounceOwnership()":"715018a6","resolveMarket(uint256,bool)":"57bde446","rewardPool()":"66666aa9","setFees(uint256,uint256,uint256,uint256)":"6fcba377","stake(uint256)":"a694fc3a","stakedUSDC(address)":"c75f74b8","transferOwnership(address)":"f2fde38b","usdc()":"3e413bee","userBets(uint256,address)":"7d06a8e1","withdraw(uint256)":"2e1a7d4d","withdrawFeeBps()":"7aca2b59","withdrawFees()":"476343ee"},"id":6}