{"abi":[{"type":"constructor","inputs":[{"name":"_usdc","type":"address","internalType":"address"}],"stateMutability":"nonpayable"},{"type":"function","name":"LOCK_PERIOD","inputs":[],"outputs":[{"name":"","type":"uint256","internalType":"uint256"}],"stateMutability":"view"},{"type":"function","name":"POINTS_PER_USDC","inputs":[],"outputs":[{"name":"","type":"uint256","internalType":"uint256"}],"stateMutability":"view"},{"type":"function","name":"SECONDS_PER_DAY","inputs":[],"outputs":[{"name":"","type":"uint256","internalType":"uint256"}],"stateMutability":"view"},{"type":"function","name":"accumFeesPoints","inputs":[],"outputs":[{"name":"","type":"uint256","internalType":"uint256"}],"stateMutability":"view"},{"type":"function","name":"accumFeesUSDC","inputs":[],"outputs":[{"name":"","type":"uint256","internalType":"uint256"}],"stateMutability":"view"},{"type":"function","name":"addToRewardPool","inputs":[{"name":"amount","type":"uint256","internalType":"uint256"}],"outputs":[],"stateMutability":"nonpayable"},{"type":"function","name":"claimFeeBps","inputs":[],"outputs":[{"name":"","type":"uint256","internalType":"uint256"}],"stateMutability":"view"},{"type":"function","name":"claimWinnings","inputs":[{"name":"marketId","type":"uint256","internalType":"uint256"}],"outputs":[],"stateMutability":"nonpayable"},{"type":"function","name":"claimYield","inputs":[],"outputs":[],"stateMutability":"nonpayable"},{"type":"function","name":"createMarket","inputs":[{"name":"description","type":"string","internalType":"string"},{"name":"category","type":"string","internalType":"string"},{"name":"duration","type":"uint256","internalType":"uint256"}],"outputs":[],"stateMutability":"nonpayable"},{"type":"function","name":"entryFeeBps","inputs":[],"outputs":[{"name":"","type":"uint256","internalType":"uint256"}],"stateMutability":"view"},{"type":"function","name":"getAllMarkets","inputs":[],"outputs":[{"name":"","type":"tuple[]","internalType":"struct NeonSlashVault.Market[]","components":[{"name":"description","type":"string","internalType":"string"},{"name":"category","type":"string","internalType":"string"},{"name":"totalYes","type":"uint256","internalType":"uint256"},{"name":"totalNo","type":"uint256","internalType":"uint256"},{"name":"resolved","type":"bool","internalType":"bool"},{"name":"result","type":"bool","internalType":"bool"},{"name":"deadline","type":"uint256","internalType":"uint256"},{"name":"exists","type":"bool","internalType":"bool"}]}],"stateMutability":"view"},{"type":"function","name":"getPoints","inputs":[{"name":"user","type":"address","internalType":"address"}],"outputs":[{"name":"","type":"uint256","internalType":"uint256"}],"stateMutability":"view"},{"type":"function","name":"lastClaimTimestamp","inputs":[{"name":"","type":"address","internalType":"address"}],"outputs":[{"name":"","type":"uint256","internalType":"uint256"}],"stateMutability":"view"},{"type":"function","name":"marketCount","inputs":[],"outputs":[{"name":"","type":"uint256","internalType":"uint256"}],"stateMutability":"view"},{"type":"function","name":"markets","inputs":[{"name":"","type":"uint256","internalType":"uint256"}],"outputs":[{"name":"description","type":"string","internalType":"string"},{"name":"category","type":"string","internalType":"string"},{"name":"totalYes","type":"uint256","internalType":"uint256"},{"name":"totalNo","type":"uint256","internalType":"uint256"},{"name":"resolved","type":"bool","internalType":"bool"},{"name":"result","type":"bool","internalType":"bool"},{"name":"deadline","type":"uint256","internalType":"uint256"},{"name":"exists","type":"bool","internalType":"bool"}],"stateMutability":"view"},{"type":"function","name":"nftContract","inputs":[],"outputs":[{"name":"","type":"address","internalType":"address"}],"stateMutability":"view"},{"type":"function","name":"owner","inputs":[],"outputs":[{"name":"","type":"address","internalType":"address"}],"stateMutability":"view"},{"type":"function","name":"placeBet","inputs":[{"name":"marketId","type":"uint256","internalType":"uint256"},{"name":"prediction","type":"bool","internalType":"bool"},{"name":"amount","type":"uint256","internalType":"uint256"}],"outputs":[],"stateMutability":"nonpayable"},{"type":"function","name":"pointBalances","inputs":[{"name":"","type":"address","internalType":"address"}],"outputs":[{"name":"","type":"uint256","internalType":"uint256"}],"stateMutability":"view"},{"type":"function","name":"redeemNFT","inputs":[],"outputs":[],"stateMutability":"nonpayable"},{"type":"function","name":"redeemPoints","inputs":[{"name":"points","type":"uint256","internalType":"uint256"}],"outputs":[],"stateMutability":"nonpayable"},{"type":"function","name":"redemptionFeeBps","inputs":[],"outputs":[{"name":"","type":"uint256","internalType":"uint256"}],"stateMutability":"view"},{"type":"function","name":"renounceOwnership","inputs":[],"outputs":[],"stateMutability":"nonpayable"},{"type":"function","name":"resolveMarket","inputs":[{"name":"marketId","type":"uint256","internalType":"uint256"},{"name":"result","type":"bool","internalType":"bool"}],"outputs":[],"stateMutability":"nonpayable"},{"type":"function","name":"rewardPool","inputs":[],"outputs":[{"name":"","type":"uint256","internalType":"uint256"}],"stateMutability":"view"},{"type":"function","name":"setFees","inputs":[{"name":"_entry","type":"uint256","internalType":"uint256"},{"name":"_claim","type":"uint256","internalType":"uint256"},{"name":"_withdraw","type":"uint256","internalType":"uint256"},{"name":"_redemption","type":"uint256","internalType":"uint256"}],"outputs":[],"stateMutability":"nonpayable"},{"type":"function","name":"setNFTContract","inputs":[{"name":"_nft","type":"address","internalType":"address"}],"outputs":[],"stateMutability":"nonpayable"},{"type":"function","name":"stake","inputs":[{"name":"amount","type":"uint256","internalType":"uint256"}],"outputs":[],"stateMutability":"nonpayable"},{"type":"function","name":"stakeTimestamp","inputs":[{"name":"","type":"address","internalType":"address"}],"outputs":[{"name":"","type":"uint256","internalType":"uint256"}],"stateMutability":"view"},{"type":"function","name":"stakedUSDC","inputs":[{"name":"","type":"address","internalType":"address"}],"outputs":[{"name":"","type":"uint256","internalType":"uint256"}],"stateMutability":"view"},{"type":"function","name":"transferOwnership","inputs":[{"name":"newOwner","type":"address","internalType":"address"}],"outputs":[],"stateMutability":"nonpayable"},{"type":"function","name":"usdc","inputs":[],"outputs":[{"name":"","type":"address","internalType":"contract IERC20"}],"stateMutability":"view"},{"type":"function","name":"userBets","inputs":[{"name":"","type":"uint256","internalType":"uint256"},{"name":"","type":"address","internalType":"address"}],"outputs":[{"name":"amount","type":"uint256","internalType":"uint256"},{"name":"prediction","type":"bool","internalType":"bool"},{"name":"claimed","type":"bool","internalType":"bool"}],"stateMutability":"view"},{"type":"function","name":"withdraw","inputs":[{"name":"amount","type":"uint256","internalType":"uint256"}],"outputs":[],"stateMutability":"nonpayable"},{"type":"function","name":"withdrawFeeBps","inputs":[],"outputs":[{"name":"","type":"uint256","internalType":"uint256"}],"stateMutability":"view"},{"type":"function","name":"withdrawFees","inputs":[],"outputs":[],"stateMutability":"nonpayable"},{"type":"event","name":"BetPlaced","inputs":[{"name":"marketId","type":"uint256","indexed":true,"internalType":"uint256"},{"name":"user","type":"address","indexed":true,"internalType":"address"},{"name":"prediction","type":"bool","indexed":false,"internalType":"bool"},{"name":"amount","type":"uint256","indexed":false,"internalType":"uint256"}],"anonymous":false},{"type":"event","name":"FeesUpdated","inputs":[{"name":"entry","type":"uint256","indexed":false,"internalType":"uint256"},{"name":"claim","type":"uint256","indexed":false,"internalType":"uint256"},{"name":"withdraw","type":"uint256","indexed":false,"internalType":"uint256"},{"name":"redemption","type":"uint256","indexed":false,"internalType":"uint256"}],"anonymous":false},{"type":"event","name":"MarketCreated","inputs":[{"name":"marketId","type":"uint256","indexed":true,"internalType":"uint256"},{"name":"description","type":"string","indexed":false,"internalType":"string"},{"name":"category","type":"string","indexed":false,"internalType":"string"},{"name":"deadline","type":"uint256","indexed":false,"internalType":"uint256"}],"anonymous":false},{"type":"event","name":"MarketResolved","inputs":[{"name":"marketId","type":"uint256","indexed":true,"internalType":"uint256"},{"name":"result","type":"bool","indexed":false,"internalType":"bool"}],"anonymous":false},{"type":"event","name":"OwnershipTransferred","inputs":[{"name":"previousOwner","type":"address","indexed":true,"internalType":"address"},{"name":"newOwner","type":"address","indexed":true,"internalType":"address"}],"anonymous":false},{"type":"event","name":"PointsClaimed","inputs":[{"name":"user","type":"address","indexed":true,"internalType":"address"},{"name":"points","type":"uint256","indexed":false,"internalType":"uint256"}],"anonymous":false},{"type":"event","name":"RewardClaimed","inputs":[{"name":"user","type":"address","indexed":true,"internalType":"address"},{"name":"pointsRedeemed","type":"uint256","indexed":false,"internalType":"uint256"},{"name":"usdcReward","type":"uint256","indexed":false,"internalType":"uint256"}],"anonymous":false},{"type":"event","name":"Staked","inputs":[{"name":"user","type":"address","indexed":true,"internalType":"address"},{"name":"amount","type":"uint256","indexed":false,"internalType":"uint256"},{"name":"pointsAdded","type":"uint256","indexed":false,"internalType":"uint256"}],"anonymous":false},{"type":"event","name":"TreasuryWithdrawn","inputs":[{"name":"to","type":"address","indexed":false,"internalType":"address"},{"name":"amount","type":"uint256","indexed":false,"internalType":"uint256"}],"anonymous":false},{"type":"error","name":"OwnableInvalidOwner","inputs":[{"name":"owner","type":"address","internalType":"address"}]},{"type":"error","name":"OwnableUnauthorizedAccount","inputs":[{"name":"account","type":"address","internalType":"address"}]},{"type":"error","name":"ReentrancyGuardReentrantCall","inputs":[]}],"bytecode":{"object":"0x60a060405260c8600b5560c8600c556064600d5560c8600e55348015610023575f5ffd5b50604051613f65380380613f6583398181016040528101906100459190610226565b335f73ffffffffffffffffffffffffffffffffffffffff168173ffffffffffffffffffffffffffffffffffffffff16036100b6575f6040517f1e4fbdf70000000000000000000000000000000000000000000000000000000081526004016100ad9190610260565b60405180910390fd5b6100c58161010760201b60201c565b50600180819055508073ffffffffffffffffffffffffffffffffffffffff1660808173ffffffffffffffffffffffffffffffffffffffff168152505050610279565b5f5f5f9054906101000a900473ffffffffffffffffffffffffffffffffffffffff169050815f5f6101000a81548173ffffffffffffffffffffffffffffffffffffffff021916908373ffffffffffffffffffffffffffffffffffffffff1602179055508173ffffffffffffffffffffffffffffffffffffffff168173ffffffffffffffffffffffffffffffffffffffff167f8be0079c531659141344cd1fd0a4f28419497f9722a3daafe3b4186f6b6457e060405160405180910390a35050565b5f5ffd5b5f73ffffffffffffffffffffffffffffffffffffffff82169050919050565b5f6101f5826101cc565b9050919050565b610205816101eb565b811461020f575f5ffd5b50565b5f81519050610220816101fc565b92915050565b5f6020828403121561023b5761023a6101c8565b5b5f61024884828501610212565b91505092915050565b61025a816101eb565b82525050565b5f6020820190506102735f830184610251565b92915050565b608051613cb16102b45f395f8181610c9301528181610d3c01528181610d90015281816116f101528181611d120152611fbc0152613cb15ff3fe608060405234801561000f575f5ffd5b5060043610610225575f3560e01c80637a526f4e1161012e578063b95ffbce116100b6578063e92e92e71161007a578063e92e92e7146105fe578063ec9790821461061a578063ee204abb14610638578063f2fde38b14610668578063f98b77831461068457610225565b8063b95ffbce14610546578063bd9d518b14610562578063c75f74b814610592578063d56d229d146105c2578063d68002f3146105e057610225565b8063a081be9c116100fd578063a081be9c1461049b578063a694fc3a146104b9578063a7ccabdf146104d5578063b0772d0b146104f1578063b1283e771461050f57610225565b80637a526f4e1461040f5780637aca2b591461042d5780637d06a8e11461044b5780638da5cb5b1461047d57610225565b806357bde446116101b15780636fcba377116101805780636fcba3771461039157806370259077146103ad578063715018a6146103dd57806374f0314f146103e757806377262d381461040557610225565b806357bde4461461031d57806366666aa914610339578063677bd9ff146103575780636963d7ea1461037357610225565b80632e1a7d4d116101f85780632e1a7d4d146102b15780633e413bee146102cd578063406cf229146102eb578063476343ee146102f5578063578334ee146102ff57610225565b80631820cabb1461022957806318650a1e146102475780631a38cac61461026557806327f30a0814610281575b5f5ffd5b6102316106a0565b60405161023e919061274f565b60405180910390f35b61024f6106b3565b60405161025c919061274f565b60405180910390f35b61027f600480360381019061027a91906127d8565b6106b8565b005b61029b60048036038101906102969190612882565b610ab9565b6040516102a8919061274f565b60405180910390f35b6102cb60048036038101906102c691906128ad565b610ace565b005b6102d5610d3a565b6040516102e29190612933565b60405180910390f35b6102f3610d5e565b005b6102fd610d79565b005b610307610e74565b604051610314919061274f565b60405180910390f35b6103376004803603810190610332919061294c565b610e7a565b005b610341610fac565b60405161034e919061274f565b60405180910390f35b610371600480360381019061036c91906128ad565b610fb2565b005b61037b61128f565b604051610388919061274f565b60405180910390f35b6103ab60048036038101906103a6919061298a565b611295565b005b6103c760048036038101906103c29190612882565b6112fc565b6040516103d4919061274f565b60405180910390f35b6103e5611311565b005b6103ef611324565b6040516103fc919061274f565b60405180910390f35b61040d61132b565b005b610417611622565b604051610424919061274f565b60405180910390f35b610435611628565b604051610442919061274f565b60405180910390f35b610465600480360381019061046091906129ee565b61162e565b60405161047493929190612a3b565b60405180910390f35b610485611678565b6040516104929190612a7f565b60405180910390f35b6104a361169f565b6040516104b0919061274f565b60405180910390f35b6104d360048036038101906104ce91906128ad565b6116a5565b005b6104ef60048036038101906104ea9190612882565b6118f8565b005b6104f9611943565b6040516105069190612c95565b60405180910390f35b610529600480360381019061052491906128ad565b611b9b565b60405161053d989796959493929190612cfd565b60405180910390f35b610560600480360381019061055b91906128ad565b611d10565b005b61057c60048036038101906105779190612882565b611dc9565b604051610589919061274f565b60405180910390f35b6105ac60048036038101906105a79190612882565b611dde565b6040516105b9919061274f565b60405180910390f35b6105ca611df3565b6040516105d79190612a7f565b60405180910390f35b6105e8611e18565b6040516105f5919061274f565b60405180910390f35b610618600480360381019061061391906128ad565b611e1e565b005b6106226120b4565b60405161062f919061274f565b60405180910390f35b610652600480360381019061064d9190612882565b6120ba565b60405161065f919061274f565b60405180910390f35b610682600480360381019061067d9190612882565b6121c1565b005b61069e60048036038101906106999190612eb3565b612245565b005b62015180601e6106b09190612f68565b81565b600581565b6106c06123c0565b5f60075f8581526020019081526020015f209050806006015f9054906101000a900460ff16610724576040517f08c379a000000000000000000000000000000000000000000000000000000000815260040161071b90612ff3565b60405180910390fd5b806004015f9054906101000a900460ff1615610775576040517f08c379a000000000000000000000000000000000000000000000000000000000815260040161076c9061305b565b60405180910390fd5b806005015442106107bb576040517f08c379a00000000000000000000000000000000000000000000000000000000081526004016107b2906130c3565b60405180910390fd5b8160035f3373ffffffffffffffffffffffffffffffffffffffff1673ffffffffffffffffffffffffffffffffffffffff1681526020019081526020015f2054101561083b576040517f08c379a00000000000000000000000000000000000000000000000000000000081526004016108329061312b565b60405180910390fd5b5f60095f8681526020019081526020015f205f3373ffffffffffffffffffffffffffffffffffffffff1673ffffffffffffffffffffffffffffffffffffffff1681526020019081526020015f205f0154146108cb576040517f08c379a00000000000000000000000000000000000000000000000000000000081526004016108c290613193565b60405180910390fd5b5f612710600b54846108dd9190612f68565b6108e791906131de565b90505f81846108f6919061320e565b90508160105f8282546109099190613241565b925050819055508360035f3373ffffffffffffffffffffffffffffffffffffffff1673ffffffffffffffffffffffffffffffffffffffff1681526020019081526020015f205f82825461095c919061320e565b9250508190555084156109885780836002015f82825461097c9190613241565b925050819055506109a3565b80836003015f82825461099b9190613241565b925050819055505b604051806060016040528082815260200186151581526020015f151581525060095f8881526020019081526020015f205f3373ffffffffffffffffffffffffffffffffffffffff1673ffffffffffffffffffffffffffffffffffffffff1681526020019081526020015f205f820151815f01556020820151816001015f6101000a81548160ff02191690831515021790555060408201518160010160016101000a81548160ff0219169083151502179055509050503373ffffffffffffffffffffffffffffffffffffffff16867f4af71b021e799c62c158bd54636ca8da2fa26115a21a2dc6efe486ec104fd15f8784604051610aa1929190613274565b60405180910390a3505050610ab4612406565b505050565b6003602052805f5260405f205f915090505481565b610ad66123c0565b8060045f3373ffffffffffffffffffffffffffffffffffffffff1673ffffffffffffffffffffffffffffffffffffffff1681526020019081526020015f20541015610b56576040517f08c379a0000000000000000000000000000000000000000000000000000000008152600401610b4d906132e5565b60405180910390fd5b62015180601e610b669190612f68565b60065f3373ffffffffffffffffffffffffffffffffffffffff1673ffffffffffffffffffffffffffffffffffffffff1681526020019081526020015f2054610bae9190613241565b421015610bf0576040517f08c379a0000000000000000000000000000000000000000000000000000000008152600401610be790613373565b60405180910390fd5b610bf93361240f565b8060045f3373ffffffffffffffffffffffffffffffffffffffff1673ffffffffffffffffffffffffffffffffffffffff1681526020019081526020015f205f828254610c45919061320e565b925050819055505f612710600d5483610c5e9190612f68565b610c6891906131de565b90505f8183610c77919061320e565b905081600f5f828254610c8a9190613241565b925050819055507f000000000000000000000000000000000000000000000000000000000000000073ffffffffffffffffffffffffffffffffffffffff1663a9059cbb33836040518363ffffffff1660e01b8152600401610cec929190613391565b6020604051808303815f875af1158015610d08573d5f5f3e3d5ffd5b505050506040513d601f19601f82011682018060405250810190610d2c91906133cc565b505050610d37612406565b50565b7f000000000000000000000000000000000000000000000000000000000000000081565b610d666123c0565b610d6f3361240f565b610d77612406565b565b610d816125a3565b5f600f5490505f600f819055507f000000000000000000000000000000000000000000000000000000000000000073ffffffffffffffffffffffffffffffffffffffff1663a9059cbb610dd2611678565b836040518363ffffffff1660e01b8152600401610df0929190613391565b6020604051808303815f875af1158015610e0c573d5f5f3e3d5ffd5b505050506040513d601f19601f82011682018060405250810190610e3091906133cc565b507f41fdd680478135993bc53fb2ffaf9560951b57ef62ff6badd02b61e018b4f17f610e5a611678565b82604051610e69929190613391565b60405180910390a150565b600b5481565b610e826125a3565b5f60075f8481526020019081526020015f209050806006015f9054906101000a900460ff16610ee6576040517f08c379a0000000000000000000000000000000000000000000000000000000008152600401610edd90612ff3565b60405180910390fd5b806004015f9054906101000a900460ff1615610f37576040517f08c379a0000000000000000000000000000000000000000000000000000000008152600401610f2e9061305b565b60405180910390fd5b6001816004015f6101000a81548160ff021916908315150217905550818160040160016101000a81548160ff021916908315150217905550827f4927fe38919783250023d27e65a3e56b6b5c3e49364e51674a41ef08d62460d983604051610f9f91906133f7565b60405180910390a2505050565b600a5481565b610fba6123c0565b5f60075f8381526020019081526020015f209050806004015f9054906101000a900460ff1661101e576040517f08c379a00000000000000000000000000000000000000000000000000000000081526004016110159061345a565b60405180910390fd5b5f60095f8481526020019081526020015f205f3373ffffffffffffffffffffffffffffffffffffffff1673ffffffffffffffffffffffffffffffffffffffff1681526020019081526020015f2090505f815f0154116110b2576040517f08c379a00000000000000000000000000000000000000000000000000000000081526004016110a9906134c2565b60405180910390fd5b8060010160019054906101000a900460ff1615611104576040517f08c379a00000000000000000000000000000000000000000000000000000000081526004016110fb9061352a565b60405180910390fd5b8160040160019054906101000a900460ff161515816001015f9054906101000a900460ff1615151461116b576040517f08c379a000000000000000000000000000000000000000000000000000000000815260040161116290613592565b60405180910390fd5b60018160010160016101000a81548160ff0219169083151502179055505f8260030154836002015461119d9190613241565b90505f8360040160019054906101000a900460ff166111c05783600301546111c6565b83600201545b90505f8183855f01546111d99190612f68565b6111e391906131de565b90505f612710600c54836111f79190612f68565b61120191906131de565b90505f8183611210919061320e565b90508160105f8282546112239190613241565b925050819055508060035f3373ffffffffffffffffffffffffffffffffffffffff1673ffffffffffffffffffffffffffffffffffffffff1681526020019081526020015f205f8282546112769190613241565b925050819055505050505050505061128c612406565b50565b600f5481565b61129d6125a3565b83600b8190555082600c8190555081600d8190555080600e819055507f16e6f67290546b8dd0e587f4b7f67d4f61932ae17ffd8c60d3509dbc05c175fe848484846040516112ee94939291906135b0565b60405180910390a150505050565b6006602052805f5260405f205f915090505481565b6113196125a3565b6113225f61262a565b565b6201518081565b6113336123c0565b61133c3361240f565b6103e860035f3373ffffffffffffffffffffffffffffffffffffffff1673ffffffffffffffffffffffffffffffffffffffff1681526020019081526020015f205410156113be576040517f08c379a00000000000000000000000000000000000000000000000000000000081526004016113b59061363d565b60405180910390fd5b5f73ffffffffffffffffffffffffffffffffffffffff1660025f9054906101000a900473ffffffffffffffffffffffffffffffffffffffff1673ffffffffffffffffffffffffffffffffffffffff160361144d576040517f08c379a0000000000000000000000000000000000000000000000000000000008152600401611444906136a5565b60405180910390fd5b6103e860035f3373ffffffffffffffffffffffffffffffffffffffff1673ffffffffffffffffffffffffffffffffffffffff1681526020019081526020015f205f82825461149b919061320e565b925050819055505f604051806060016040528060228152602001613c5a6022913990505f60025f9054906101000a900473ffffffffffffffffffffffffffffffffffffffff1673ffffffffffffffffffffffffffffffffffffffff16338360405160240161150a9291906136c3565b6040516020818303038152906040527fd204c45e000000000000000000000000000000000000000000000000000000007bffffffffffffffffffffffffffffffffffffffffffffffffffffffff19166020820180517bffffffffffffffffffffffffffffffffffffffffffffffffffffffff83818316178352505050506040516115949190613735565b5f604051808303815f865af19150503d805f81146115cd576040519150601f19603f3d011682016040523d82523d5f602084013e6115d2565b606091505b5050905080611616576040517f08c379a000000000000000000000000000000000000000000000000000000000815260040161160d90613795565b60405180910390fd5b5050611620612406565b565b600c5481565b600d5481565b6009602052815f5260405f20602052805f5260405f205f9150915050805f015490806001015f9054906101000a900460ff16908060010160019054906101000a900460ff16905083565b5f5f5f9054906101000a900473ffffffffffffffffffffffffffffffffffffffff16905090565b60105481565b6116ad6123c0565b5f81116116ef576040517f08c379a00000000000000000000000000000000000000000000000000000000081526004016116e6906137fd565b60405180910390fd5b7f000000000000000000000000000000000000000000000000000000000000000073ffffffffffffffffffffffffffffffffffffffff166323b872dd3330846040518463ffffffff1660e01b815260040161174c9392919061381b565b6020604051808303815f875af1158015611768573d5f5f3e3d5ffd5b505050506040513d601f19601f8201168201806040525081019061178c91906133cc565b506117963361240f565b8060045f3373ffffffffffffffffffffffffffffffffffffffff1673ffffffffffffffffffffffffffffffffffffffff1681526020019081526020015f205f8282546117e29190613241565b925050819055504260065f3373ffffffffffffffffffffffffffffffffffffffff1673ffffffffffffffffffffffffffffffffffffffff1681526020019081526020015f20819055505f620f424060058361183d9190612f68565b61184791906131de565b90508060035f3373ffffffffffffffffffffffffffffffffffffffff1673ffffffffffffffffffffffffffffffffffffffff1681526020019081526020015f205f8282546118959190613241565b925050819055503373ffffffffffffffffffffffffffffffffffffffff167f1449c6dd7851abc30abf37f57715f492010519147cc2652fbc38202c18a6ee9083836040516118e4929190613850565b60405180910390a2506118f5612406565b50565b6119006125a3565b8060025f6101000a81548173ffffffffffffffffffffffffffffffffffffffff021916908373ffffffffffffffffffffffffffffffffffffffff16021790555050565b60605f60085467ffffffffffffffff81111561196257611961612d8f565b5b60405190808252806020026020018201604052801561199b57816020015b6119886126f2565b8152602001906001900390816119805790505b5090505f600190505b6008548111611b935760075f8281526020019081526020015f20604051806101000160405290815f820180546119d9906138a4565b80601f0160208091040260200160405190810160405280929190818152602001828054611a05906138a4565b8015611a505780601f10611a2757610100808354040283529160200191611a50565b820191905f5260205f20905b815481529060010190602001808311611a3357829003601f168201915b50505050508152602001600182018054611a69906138a4565b80601f0160208091040260200160405190810160405280929190818152602001828054611a95906138a4565b8015611ae05780601f10611ab757610100808354040283529160200191611ae0565b820191905f5260205f20905b815481529060010190602001808311611ac357829003601f168201915b505050505081526020016002820154815260200160038201548152602001600482015f9054906101000a900460ff161515151581526020016004820160019054906101000a900460ff1615151515815260200160058201548152602001600682015f9054906101000a900460ff16151515158152505082600183611b64919061320e565b81518110611b7557611b746138d4565b5b60200260200101819052508080611b8b90613901565b9150506119a4565b508091505090565b6007602052805f5260405f205f91509050805f018054611bba906138a4565b80601f0160208091040260200160405190810160405280929190818152602001828054611be6906138a4565b8015611c315780601f10611c0857610100808354040283529160200191611c31565b820191905f5260205f20905b815481529060010190602001808311611c1457829003601f168201915b505050505090806001018054611c46906138a4565b80601f0160208091040260200160405190810160405280929190818152602001828054611c72906138a4565b8015611cbd5780601f10611c9457610100808354040283529160200191611cbd565b820191905f5260205f20905b815481529060010190602001808311611ca057829003601f168201915b505050505090806002015490806003015490806004015f9054906101000a900460ff16908060040160019054906101000a900460ff1690806005015490806006015f9054906101000a900460ff16905088565b7f000000000000000000000000000000000000000000000000000000000000000073ffffffffffffffffffffffffffffffffffffffff166323b872dd3330846040518463ffffffff1660e01b8152600401611d6d9392919061381b565b6020604051808303815f875af1158015611d89573d5f5f3e3d5ffd5b505050506040513d601f19601f82011682018060405250810190611dad91906133cc565b5080600a5f828254611dbf9190613241565b9250508190555050565b6005602052805f5260405f205f915090505481565b6004602052805f5260405f205f915090505481565b60025f9054906101000a900473ffffffffffffffffffffffffffffffffffffffff1681565b600e5481565b611e266123c0565b8060035f3373ffffffffffffffffffffffffffffffffffffffff1673ffffffffffffffffffffffffffffffffffffffff1681526020019081526020015f20541015611ea6576040517f08c379a0000000000000000000000000000000000000000000000000000000008152600401611e9d9061312b565b60405180910390fd5b5f6103e8620f424083611eb99190612f68565b611ec391906131de565b90505f612710600e5483611ed79190612f68565b611ee191906131de565b90505f8183611ef0919061320e565b905080600a541015611f37576040517f08c379a0000000000000000000000000000000000000000000000000000000008152600401611f2e90613992565b60405180910390fd5b8360035f3373ffffffffffffffffffffffffffffffffffffffff1673ffffffffffffffffffffffffffffffffffffffff1681526020019081526020015f205f828254611f83919061320e565b9250508190555080600a5f828254611f9b919061320e565b9250508190555081600f5f828254611fb39190613241565b925050819055507f000000000000000000000000000000000000000000000000000000000000000073ffffffffffffffffffffffffffffffffffffffff1663a9059cbb33836040518363ffffffff1660e01b8152600401612015929190613391565b6020604051808303815f875af1158015612031573d5f5f3e3d5ffd5b505050506040513d601f19601f8201168201806040525081019061205591906133cc565b503373ffffffffffffffffffffffffffffffffffffffff167ff01da32686223933d8a18a391060918c7f11a3648639edd87ae013e2e2731743858360405161209e929190613850565b60405180910390a25050506120b1612406565b50565b60085481565b5f5f60055f8473ffffffffffffffffffffffffffffffffffffffff1673ffffffffffffffffffffffffffffffffffffffff1681526020019081526020015f205442612105919061320e565b90505f620f42406201518061211a9190612f68565b8260045f8773ffffffffffffffffffffffffffffffffffffffff1673ffffffffffffffffffffffffffffffffffffffff1681526020019081526020015f20546121639190612f68565b61216d91906131de565b90508060035f8673ffffffffffffffffffffffffffffffffffffffff1673ffffffffffffffffffffffffffffffffffffffff1681526020019081526020015f20546121b89190613241565b92505050919050565b6121c96125a3565b5f73ffffffffffffffffffffffffffffffffffffffff168173ffffffffffffffffffffffffffffffffffffffff1603612239575f6040517f1e4fbdf70000000000000000000000000000000000000000000000000000000081526004016122309190612a7f565b60405180910390fd5b6122428161262a565b50565b61224d6125a3565b5f60085f815461225c90613901565b91905081905590506040518061010001604052808581526020018481526020015f81526020015f81526020015f151581526020015f1515815260200183426122a49190613241565b81526020016001151581525060075f8381526020019081526020015f205f820151815f0190816122d49190613b47565b5060208201518160010190816122ea9190613b47565b5060408201518160020155606082015181600301556080820151816004015f6101000a81548160ff02191690831515021790555060a08201518160040160016101000a81548160ff02191690831515021790555060c0820151816005015560e0820151816006015f6101000a81548160ff021916908315150217905550905050807f5efbba1029bf313d611dcc18db8c401465f4a191b59cc799da765ddbafa68e70858560075f8681526020019081526020015f20600501546040516123b293929190613c16565b60405180910390a250505050565b6002600154036123fc576040517f3ee5aeb500000000000000000000000000000000000000000000000000000000815260040160405180910390fd5b6002600181905550565b60018081905550565b5f60045f8373ffffffffffffffffffffffffffffffffffffffff1673ffffffffffffffffffffffffffffffffffffffff1681526020019081526020015f2054111561255e575f60055f8373ffffffffffffffffffffffffffffffffffffffff1673ffffffffffffffffffffffffffffffffffffffff1681526020019081526020015f20544261249e919061320e565b90505f620f4240620151806124b39190612f68565b8260045f8673ffffffffffffffffffffffffffffffffffffffff1673ffffffffffffffffffffffffffffffffffffffff1681526020019081526020015f20546124fc9190612f68565b61250691906131de565b90508060035f8573ffffffffffffffffffffffffffffffffffffffff1673ffffffffffffffffffffffffffffffffffffffff1681526020019081526020015f205f8282546125549190613241565b9250508190555050505b4260055f8373ffffffffffffffffffffffffffffffffffffffff1673ffffffffffffffffffffffffffffffffffffffff1681526020019081526020015f208190555050565b6125ab6126eb565b73ffffffffffffffffffffffffffffffffffffffff166125c9611678565b73ffffffffffffffffffffffffffffffffffffffff1614612628576125ec6126eb565b6040517f118cdaa700000000000000000000000000000000000000000000000000000000815260040161261f9190612a7f565b60405180910390fd5b565b5f5f5f9054906101000a900473ffffffffffffffffffffffffffffffffffffffff169050815f5f6101000a81548173ffffffffffffffffffffffffffffffffffffffff021916908373ffffffffffffffffffffffffffffffffffffffff1602179055508173ffffffffffffffffffffffffffffffffffffffff168173ffffffffffffffffffffffffffffffffffffffff167f8be0079c531659141344cd1fd0a4f28419497f9722a3daafe3b4186f6b6457e060405160405180910390a35050565b5f33905090565b60405180610100016040528060608152602001606081526020015f81526020015f81526020015f151581526020015f151581526020015f81526020015f151581525090565b5f819050919050565b61274981612737565b82525050565b5f6020820190506127625f830184612740565b92915050565b5f604051905090565b5f5ffd5b5f5ffd5b61278281612737565b811461278c575f5ffd5b50565b5f8135905061279d81612779565b92915050565b5f8115159050919050565b6127b7816127a3565b81146127c1575f5ffd5b50565b5f813590506127d2816127ae565b92915050565b5f5f5f606084860312156127ef576127ee612771565b5b5f6127fc8682870161278f565b935050602061280d868287016127c4565b925050604061281e8682870161278f565b9150509250925092565b5f73ffffffffffffffffffffffffffffffffffffffff82169050919050565b5f61285182612828565b9050919050565b61286181612847565b811461286b575f5ffd5b50565b5f8135905061287c81612858565b92915050565b5f6020828403121561289757612896612771565b5b5f6128a48482850161286e565b91505092915050565b5f602082840312156128c2576128c1612771565b5b5f6128cf8482850161278f565b91505092915050565b5f819050919050565b5f6128fb6128f66128f184612828565b6128d8565b612828565b9050919050565b5f61290c826128e1565b9050919050565b5f61291d82612902565b9050919050565b61292d81612913565b82525050565b5f6020820190506129465f830184612924565b92915050565b5f5f6040838503121561296257612961612771565b5b5f61296f8582860161278f565b9250506020612980858286016127c4565b9150509250929050565b5f5f5f5f608085870312156129a2576129a1612771565b5b5f6129af8782880161278f565b94505060206129c08782880161278f565b93505060406129d18782880161278f565b92505060606129e28782880161278f565b91505092959194509250565b5f5f60408385031215612a0457612a03612771565b5b5f612a118582860161278f565b9250506020612a228582860161286e565b9150509250929050565b612a35816127a3565b82525050565b5f606082019050612a4e5f830186612740565b612a5b6020830185612a2c565b612a686040830184612a2c565b949350505050565b612a7981612847565b82525050565b5f602082019050612a925f830184612a70565b92915050565b5f81519050919050565b5f82825260208201905092915050565b5f819050602082019050919050565b5f81519050919050565b5f82825260208201905092915050565b8281835e5f83830152505050565b5f601f19601f8301169050919050565b5f612b0382612ac1565b612b0d8185612acb565b9350612b1d818560208601612adb565b612b2681612ae9565b840191505092915050565b612b3a81612737565b82525050565b612b49816127a3565b82525050565b5f61010083015f8301518482035f860152612b6a8282612af9565b91505060208301518482036020860152612b848282612af9565b9150506040830151612b996040860182612b31565b506060830151612bac6060860182612b31565b506080830151612bbf6080860182612b40565b5060a0830151612bd260a0860182612b40565b5060c0830151612be560c0860182612b31565b5060e0830151612bf860e0860182612b40565b508091505092915050565b5f612c0e8383612b4f565b905092915050565b5f602082019050919050565b5f612c2c82612a98565b612c368185612aa2565b935083602082028501612c4885612ab2565b805f5b85811015612c835784840389528151612c648582612c03565b9450612c6f83612c16565b925060208a01995050600181019050612c4b565b50829750879550505050505092915050565b5f6020820190508181035f830152612cad8184612c22565b905092915050565b5f82825260208201905092915050565b5f612ccf82612ac1565b612cd98185612cb5565b9350612ce9818560208601612adb565b612cf281612ae9565b840191505092915050565b5f610100820190508181035f830152612d16818b612cc5565b90508181036020830152612d2a818a612cc5565b9050612d396040830189612740565b612d466060830188612740565b612d536080830187612a2c565b612d6060a0830186612a2c565b612d6d60c0830185612740565b612d7a60e0830184612a2c565b9998505050505050505050565b5f5ffd5b5f5ffd5b7f4e487b71000000000000000000000000000000000000000000000000000000005f52604160045260245ffd5b612dc582612ae9565b810181811067ffffffffffffffff82111715612de457612de3612d8f565b5b80604052505050565b5f612df6612768565b9050612e028282612dbc565b919050565b5f67ffffffffffffffff821115612e2157612e20612d8f565b5b612e2a82612ae9565b9050602081019050919050565b828183375f83830152505050565b5f612e57612e5284612e07565b612ded565b905082815260208101848484011115612e7357612e72612d8b565b5b612e7e848285612e37565b509392505050565b5f82601f830112612e9a57612e99612d87565b5b8135612eaa848260208601612e45565b91505092915050565b5f5f5f60608486031215612eca57612ec9612771565b5b5f84013567ffffffffffffffff811115612ee757612ee6612775565b5b612ef386828701612e86565b935050602084013567ffffffffffffffff811115612f1457612f13612775565b5b612f2086828701612e86565b9250506040612f318682870161278f565b9150509250925092565b7f4e487b71000000000000000000000000000000000000000000000000000000005f52601160045260245ffd5b5f612f7282612737565b9150612f7d83612737565b9250828202612f8b81612737565b91508282048414831517612fa257612fa1612f3b565b5b5092915050565b7f4d61726b657420646f6573206e6f7420657869737400000000000000000000005f82015250565b5f612fdd601583612cb5565b9150612fe882612fa9565b602082019050919050565b5f6020820190508181035f83015261300a81612fd1565b9050919050565b7f4d61726b657420616c7265616479207265736f6c7665640000000000000000005f82015250565b5f613045601783612cb5565b915061305082613011565b602082019050919050565b5f6020820190508181035f83015261307281613039565b9050919050565b7f42657474696e6720706572696f64206f766572000000000000000000000000005f82015250565b5f6130ad601383612cb5565b91506130b882613079565b602082019050919050565b5f6020820190508181035f8301526130da816130a1565b9050919050565b7f496e73756666696369656e7420706f696e7473000000000000000000000000005f82015250565b5f613115601383612cb5565b9150613120826130e1565b602082019050919050565b5f6020820190508181035f83015261314281613109565b9050919050565b7f416c726561647920626574206f6e2074686973206d61726b65740000000000005f82015250565b5f61317d601a83612cb5565b915061318882613149565b602082019050919050565b5f6020820190508181035f8301526131aa81613171565b9050919050565b7f4e487b71000000000000000000000000000000000000000000000000000000005f52601260045260245ffd5b5f6131e882612737565b91506131f383612737565b925082613203576132026131b1565b5b828204905092915050565b5f61321882612737565b915061322383612737565b925082820390508181111561323b5761323a612f3b565b5b92915050565b5f61324b82612737565b915061325683612737565b925082820190508082111561326e5761326d612f3b565b5b92915050565b5f6040820190506132875f830185612a2c565b6132946020830184612740565b9392505050565b7f496e73756666696369656e74207374616b65642062616c616e636500000000005f82015250565b5f6132cf601b83612cb5565b91506132da8261329b565b602082019050919050565b5f6020820190508181035f8301526132fc816132c3565b9050919050565b7f5374616b65642055534443206973206c6f636b656420666f72203330206461795f8201527f7300000000000000000000000000000000000000000000000000000000000000602082015250565b5f61335d602183612cb5565b915061336882613303565b604082019050919050565b5f6020820190508181035f83015261338a81613351565b9050919050565b5f6040820190506133a45f830185612a70565b6133b16020830184612740565b9392505050565b5f815190506133c6816127ae565b92915050565b5f602082840312156133e1576133e0612771565b5b5f6133ee848285016133b8565b91505092915050565b5f60208201905061340a5f830184612a2c565b92915050565b7f4d61726b6574206e6f74207265736f6c766564000000000000000000000000005f82015250565b5f613444601383612cb5565b915061344f82613410565b602082019050919050565b5f6020820190508181035f83015261347181613438565b9050919050565b7f4e6f2062657420666f756e6400000000000000000000000000000000000000005f82015250565b5f6134ac600c83612cb5565b91506134b782613478565b602082019050919050565b5f6020820190508181035f8301526134d9816134a0565b9050919050565b7f416c726561647920636c61696d656400000000000000000000000000000000005f82015250565b5f613514600f83612cb5565b915061351f826134e0565b602082019050919050565b5f6020820190508181035f83015261354181613508565b9050919050565b7f50726564696374696f6e20696e636f72726563740000000000000000000000005f82015250565b5f61357c601483612cb5565b915061358782613548565b602082019050919050565b5f6020820190508181035f8301526135a981613570565b9050919050565b5f6080820190506135c35f830187612740565b6135d06020830186612740565b6135dd6040830185612740565b6135ea6060830184612740565b95945050505050565b7f496e73756666696369656e7420706f696e747320666f72204e465400000000005f82015250565b5f613627601b83612cb5565b9150613632826135f3565b602082019050919050565b5f6020820190508181035f8301526136548161361b565b9050919050565b7f4e465420636f6e7472616374206e6f74207365740000000000000000000000005f82015250565b5f61368f601483612cb5565b915061369a8261365b565b602082019050919050565b5f6020820190508181035f8301526136bc81613683565b9050919050565b5f6040820190506136d65f830185612a70565b81810360208301526136e88184612cc5565b90509392505050565b5f81519050919050565b5f81905092915050565b5f61370f826136f1565b61371981856136fb565b9350613729818560208601612adb565b80840191505092915050565b5f6137408284613705565b915081905092915050565b7f4e4654206d696e74696e67206661696c656400000000000000000000000000005f82015250565b5f61377f601283612cb5565b915061378a8261374b565b602082019050919050565b5f6020820190508181035f8301526137ac81613773565b9050919050565b7f416d6f756e74206d757374206265203e203000000000000000000000000000005f82015250565b5f6137e7601283612cb5565b91506137f2826137b3565b602082019050919050565b5f6020820190508181035f830152613814816137db565b9050919050565b5f60608201905061382e5f830186612a70565b61383b6020830185612a70565b6138486040830184612740565b949350505050565b5f6040820190506138635f830185612740565b6138706020830184612740565b9392505050565b7f4e487b71000000000000000000000000000000000000000000000000000000005f52602260045260245ffd5b5f60028204905060018216806138bb57607f821691505b6020821081036138ce576138cd613877565b5b50919050565b7f4e487b71000000000000000000000000000000000000000000000000000000005f52603260045260245ffd5b5f61390b82612737565b91507fffffffffffffffffffffffffffffffffffffffffffffffffffffffffffffffff820361393d5761393c612f3b565b5b600182019050919050565b7f52657761726420706f6f6c206465706c657465640000000000000000000000005f82015250565b5f61397c601483612cb5565b915061398782613948565b602082019050919050565b5f6020820190508181035f8301526139a981613970565b9050919050565b5f819050815f5260205f209050919050565b5f6020601f8301049050919050565b5f82821b905092915050565b5f60088302613a0c7fffffffffffffffffffffffffffffffffffffffffffffffffffffffffffffffff826139d1565b613a1686836139d1565b95508019841693508086168417925050509392505050565b5f613a48613a43613a3e84612737565b6128d8565b612737565b9050919050565b5f819050919050565b613a6183613a2e565b613a75613a6d82613a4f565b8484546139dd565b825550505050565b5f5f905090565b613a8c613a7d565b613a97818484613a58565b505050565b5b81811015613aba57613aaf5f82613a84565b600181019050613a9d565b5050565b601f821115613aff57613ad0816139b0565b613ad9846139c2565b81016020851015613ae8578190505b613afc613af4856139c2565b830182613a9c565b50505b505050565b5f82821c905092915050565b5f613b1f5f1984600802613b04565b1980831691505092915050565b5f613b378383613b10565b9150826002028217905092915050565b613b5082612ac1565b67ffffffffffffffff811115613b6957613b68612d8f565b5b613b7382546138a4565b613b7e828285613abe565b5f60209050601f831160018114613baf575f8415613b9d578287015190505b613ba78582613b2c565b865550613c0e565b601f198416613bbd866139b0565b5f5b82811015613be457848901518255600182019150602085019450602081019050613bbf565b86831015613c015784890151613bfd601f891682613b10565b8355505b6001600288020188555050505b505050505050565b5f6060820190508181035f830152613c2e8186612cc5565b90508181036020830152613c428185612cc5565b9050613c516040830184612740565b94935050505056fe697066733a2f2f516d4e656f6e536c617368477561726469616e4d65746164617461a2646970667358221220fc30a0190434da5e3257b4188e2bef4fdc91060196d7edb616575beec45882b364736f6c634300081e0033","linkReferences":{}},"methodIdentifiers":{"LOCK_PERIOD()":"1820cabb","POINTS_PER_USDC()":"18650a1e","SECONDS_PER_DAY()":"74f0314f","accumFeesPoints()":"a081be9c","accumFeesUSDC()":"6963d7ea","addToRewardPool(uint256)":"b95ffbce","claimFeeBps()":"7a526f4e","claimWinnings(uint256)":"677bd9ff","claimYield()":"406cf229","createMarket(string,string,uint256)":"f98b7783","entryFeeBps()":"578334ee","getAllMarkets()":"b0772d0b","getPoints(address)":"ee204abb","lastClaimTimestamp(address)":"bd9d518b","marketCount()":"ec979082","markets(uint256)":"b1283e77","nftContract()":"d56d229d","owner()":"8da5cb5b","placeBet(uint256,bool,uint256)":"1a38cac6","pointBalances(address)":"27f30a08","redeemNFT()":"77262d38","redeemPoints(uint256)":"e92e92e7","redemptionFeeBps()":"d68002f3","renounceOwnership()":"715018a6","resolveMarket(uint256,bool)":"57bde446","rewardPool()":"66666aa9","setFees(uint256,uint256,uint256,uint256)":"6fcba377","setNFTContract(address)":"a7ccabdf","stake(uint256)":"a694fc3a","stakeTimestamp(address)":"70259077","stakedUSDC(address)":"c75f74b8","transferOwnership(address)":"f2fde38b","usdc()":"3e413bee","userBets(uint256,address)":"7d06a8e1","withdraw(uint256)":"2e1a7d4d","withdrawFeeBps()":"7aca2b59","withdrawFees()":"476343ee"},"id":44}