{"abi":[{"type":"constructor","inputs":[{"name":"_usdc","type":"address","internalType":"address"}],"stateMutability":"nonpayable"},{"type":"function","name":"DECAY_RATE","inputs":[],"outputs":[{"name":"","type":"uint256","internalType":"uint256"}],"stateMutability":"view"},{"type":"function","name":"SECONDS_PER_MONTH","inputs":[],"outputs":[{"name":"","type":"uint256","internalType":"uint256"}],"stateMutability":"view"},{"type":"function","name":"SECONDS_PER_YEAR","inputs":[],"outputs":[{"name":"","type":"uint256","internalType":"uint256"}],"stateMutability":"view"},{"type":"function","name":"YIELD_RATE","inputs":[],"outputs":[{"name":"","type":"uint256","internalType":"uint256"}],"stateMutability":"view"},{"type":"function","name":"acceptTask","inputs":[{"name":"bondRequired","type":"uint256","internalType":"uint256"},{"name":"reward","type":"uint256","internalType":"uint256"},{"name":"duration","type":"uint256","internalType":"uint256"}],"outputs":[{"name":"","type":"uint256","internalType":"uint256"}],"stateMutability":"nonpayable"},{"type":"function","name":"agents","inputs":[{"name":"","type":"address","internalType":"address"}],"outputs":[{"name":"principalBond","type":"uint256","internalType":"uint256"},{"name":"lastUpdateTimestamp","type":"uint256","internalType":"uint256"},{"name":"totalSlashed","type":"uint256","internalType":"uint256"},{"name":"tasksCompleted","type":"uint256","internalType":"uint256"},{"name":"isActive","type":"bool","internalType":"bool"}],"stateMutability":"view"},{"type":"function","name":"finishTask","inputs":[{"name":"taskId","type":"uint256","internalType":"uint256"},{"name":"success","type":"bool","internalType":"bool"},{"name":"bonus","type":"uint256","internalType":"uint256"}],"outputs":[],"stateMutability":"nonpayable"},{"type":"function","name":"getEffectiveBond","inputs":[{"name":"agentAddr","type":"address","internalType":"address"}],"outputs":[{"name":"","type":"uint256","internalType":"uint256"}],"stateMutability":"view"},{"type":"function","name":"getInsurancePool","inputs":[],"outputs":[{"name":"","type":"uint256","internalType":"uint256"}],"stateMutability":"view"},{"type":"function","name":"insurancePool","inputs":[],"outputs":[{"name":"","type":"uint256","internalType":"uint256"}],"stateMutability":"view"},{"type":"function","name":"owner","inputs":[],"outputs":[{"name":"","type":"address","internalType":"address"}],"stateMutability":"view"},{"type":"function","name":"renounceOwnership","inputs":[],"outputs":[],"stateMutability":"nonpayable"},{"type":"function","name":"stake","inputs":[{"name":"amount","type":"uint256","internalType":"uint256"}],"outputs":[],"stateMutability":"nonpayable"},{"type":"function","name":"taskCount","inputs":[],"outputs":[{"name":"","type":"uint256","internalType":"uint256"}],"stateMutability":"view"},{"type":"function","name":"tasks","inputs":[{"name":"","type":"uint256","internalType":"uint256"}],"outputs":[{"name":"agent","type":"address","internalType":"address"},{"name":"bondLocked","type":"uint256","internalType":"uint256"},{"name":"reward","type":"uint256","internalType":"uint256"},{"name":"isCompleted","type":"bool","internalType":"bool"},{"name":"isSlashed","type":"bool","internalType":"bool"},{"name":"deadline","type":"uint256","internalType":"uint256"}],"stateMutability":"view"},{"type":"function","name":"transferOwnership","inputs":[{"name":"newOwner","type":"address","internalType":"address"}],"outputs":[],"stateMutability":"nonpayable"},{"type":"function","name":"usdc","inputs":[],"outputs":[{"name":"","type":"address","internalType":"contract IERC20"}],"stateMutability":"view"},{"type":"function","name":"withdraw","inputs":[{"name":"amount","type":"uint256","internalType":"uint256"}],"outputs":[],"stateMutability":"nonpayable"},{"type":"event","name":"BondStaked","inputs":[{"name":"agent","type":"address","indexed":true,"internalType":"address"},{"name":"amount","type":"uint256","indexed":false,"internalType":"uint256"}],"anonymous":false},{"type":"event","name":"OwnershipTransferred","inputs":[{"name":"previousOwner","type":"address","indexed":true,"internalType":"address"},{"name":"newOwner","type":"address","indexed":true,"internalType":"address"}],"anonymous":false},{"type":"event","name":"TaskAccepted","inputs":[{"name":"taskId","type":"uint256","indexed":true,"internalType":"uint256"},{"name":"agent","type":"address","indexed":true,"internalType":"address"},{"name":"bondLocked","type":"uint256","indexed":false,"internalType":"uint256"}],"anonymous":false},{"type":"event","name":"TaskCompleted","inputs":[{"name":"taskId","type":"uint256","indexed":true,"internalType":"uint256"},{"name":"reward","type":"uint256","indexed":false,"internalType":"uint256"},{"name":"bonus","type":"uint256","indexed":false,"internalType":"uint256"}],"anonymous":false},{"type":"event","name":"TaskSlashed","inputs":[{"name":"taskId","type":"uint256","indexed":true,"internalType":"uint256"},{"name":"slashedAmount","type":"uint256","indexed":false,"internalType":"uint256"}],"anonymous":false},{"type":"error","name":"OwnableInvalidOwner","inputs":[{"name":"owner","type":"address","internalType":"address"}]},{"type":"error","name":"OwnableUnauthorizedAccount","inputs":[{"name":"account","type":"address","internalType":"address"}]},{"type":"error","name":"ReentrancyGuardReentrantCall","inputs":[]}],"bytecode":{"object":"0x60a060405234801561000f575f5ffd5b50604051611ce2380380611ce283398181016040528101906100319190610212565b335f73ffffffffffffffffffffffffffffffffffffffff168173ffffffffffffffffffffffffffffffffffffffff16036100a2575f6040517f1e4fbdf7000000000000000000000000000000000000000000000000000000008152600401610099919061024c565b60405180910390fd5b6100b1816100f360201b60201c565b50600180819055508073ffffffffffffffffffffffffffffffffffffffff1660808173ffffffffffffffffffffffffffffffffffffffff168152505050610265565b5f5f5f9054906101000a900473ffffffffffffffffffffffffffffffffffffffff169050815f5f6101000a81548173ffffffffffffffffffffffffffffffffffffffff021916908373ffffffffffffffffffffffffffffffffffffffff1602179055508173ffffffffffffffffffffffffffffffffffffffff168173ffffffffffffffffffffffffffffffffffffffff167f8be0079c531659141344cd1fd0a4f28419497f9722a3daafe3b4186f6b6457e060405160405180910390a35050565b5f5ffd5b5f73ffffffffffffffffffffffffffffffffffffffff82169050919050565b5f6101e1826101b8565b9050919050565b6101f1816101d7565b81146101fb575f5ffd5b50565b5f8151905061020c816101e8565b92915050565b5f60208284031215610227576102266101b4565b5b5f610234848285016101fe565b91505092915050565b610246816101d7565b82525050565b5f60208201905061025f5f83018461023d565b92915050565b608051611a5761028b5f395f8181610462015281816107770152610d1f0152611a575ff3fe608060405234801561000f575f5ffd5b5060043610610114575f3560e01c8063a694fc3a116100a0578063d0d5665b1161006f578063d0d5665b146102bf578063e6a69ab8146102dd578063e852090a146102fb578063f2fde38b14610319578063fd66091e1461033557610114565b8063a694fc3a14610237578063ab2adc0014610253578063b69c25b314610271578063b6cb58a5146102a157610114565b80633e413bee116100e75780633e413bee146101a05780634e3a75a5146101be578063715018a6146101da5780638d977672146101e45780638da5cb5b1461021957610114565b806310786deb146101185780631de40e49146101365780632e1a7d4d146101545780632fc01da414610170575b5f5ffd5b610120610369565b60405161012d9190611310565b60405180910390f35b61013e610370565b60405161014b9190611310565b60405180910390f35b61016e60048036038101906101699190611357565b610375565b005b61018a60048036038101906101859190611382565b610508565b6040516101979190611310565b60405180910390f35b6101a8610775565b6040516101b5919061144c565b60405180910390f35b6101d860048036038101906101d3919061149a565b610799565b005b6101e2610b95565b005b6101fe60048036038101906101f99190611357565b610ba8565b60405161021096959493929190611519565b60405180910390f35b610221610c18565b60405161022e9190611578565b60405180910390f35b610251600480360381019061024c9190611357565b610c3f565b005b61025b610f06565b6040516102689190611310565b60405180910390f35b61028b600480360381019061028691906115bb565b610f0c565b6040516102989190611310565b60405180910390f35b6102a961107b565b6040516102b69190611310565b60405180910390f35b6102c7611081565b6040516102d49190611310565b60405180910390f35b6102e561108a565b6040516102f29190611310565b60405180910390f35b610303611092565b6040516103109190611310565b60405180910390f35b610333600480360381019061032e91906115bb565b611098565b005b61034f600480360381019061034a91906115bb565b61111c565b6040516103609594939291906115e6565b60405180910390f35b62278d0081565b606481565b61037d61115a565b5f61038733610f0c565b9050818110156103cc576040517f08c379a00000000000000000000000000000000000000000000000000000000081526004016103c390611691565b60405180910390fd5b81816103d891906116dc565b60025f3373ffffffffffffffffffffffffffffffffffffffff1673ffffffffffffffffffffffffffffffffffffffff1681526020019081526020015f205f01819055504260025f3373ffffffffffffffffffffffffffffffffffffffff1673ffffffffffffffffffffffffffffffffffffffff1681526020019081526020015f20600101819055507f000000000000000000000000000000000000000000000000000000000000000073ffffffffffffffffffffffffffffffffffffffff1663a9059cbb33846040518363ffffffff1660e01b81526004016104bb92919061170f565b6020604051808303815f875af11580156104d7573d5f5f3e3d5ffd5b505050506040513d601f19601f820116820180604052508101906104fb919061174a565b50506105056111a0565b50565b5f61051161115a565b5f61051b33610f0c565b905084811015610560576040517f08c379a0000000000000000000000000000000000000000000000000000000008152600401610557906117bf565b60405180910390fd5b848161056c91906116dc565b60025f3373ffffffffffffffffffffffffffffffffffffffff1673ffffffffffffffffffffffffffffffffffffffff1681526020019081526020015f205f01819055504260025f3373ffffffffffffffffffffffffffffffffffffffff1673ffffffffffffffffffffffffffffffffffffffff1681526020019081526020015f20600101819055505f60045f8154610603906117dd565b91905081905590506040518060c001604052803373ffffffffffffffffffffffffffffffffffffffff1681526020018781526020018681526020015f151581526020015f15158152602001854261065a9190611824565b81525060035f8381526020019081526020015f205f820151815f015f6101000a81548173ffffffffffffffffffffffffffffffffffffffff021916908373ffffffffffffffffffffffffffffffffffffffff16021790555060208201518160010155604082015181600201556060820151816003015f6101000a81548160ff02191690831515021790555060808201518160030160016101000a81548160ff02191690831515021790555060a082015181600401559050503373ffffffffffffffffffffffffffffffffffffffff16817ff7ca920358b7d716f572844484c380d6d3316d36f82c089598e7950b995b9e22886040516107599190611310565b60405180910390a3809250505061076e6111a0565b9392505050565b7f000000000000000000000000000000000000000000000000000000000000000081565b6107a16111a9565b6107a961115a565b5f60035f8581526020019081526020015f209050806003015f9054906101000a900460ff161580156107ea57508060030160019054906101000a900460ff16155b610829576040517f08c379a0000000000000000000000000000000000000000000000000000000008152600401610820906118a1565b60405180910390fd5b821561099f576001816003015f6101000a81548160ff0219169083151502179055505f82826002015483600101546108619190611824565b61086b9190611824565b90508060025f845f015f9054906101000a900473ffffffffffffffffffffffffffffffffffffffff1673ffffffffffffffffffffffffffffffffffffffff1673ffffffffffffffffffffffffffffffffffffffff1681526020019081526020015f205f015f8282546108dd9190611824565b9250508190555060025f835f015f9054906101000a900473ffffffffffffffffffffffffffffffffffffffff1673ffffffffffffffffffffffffffffffffffffffff1673ffffffffffffffffffffffffffffffffffffffff1681526020019081526020015f206003015f815480929190610956906117dd565b9190505550847f3af0220e426da1108b993854d4c539fe52b7f09e36d306745aac571676af5fea8360020154856040516109919291906118bf565b60405180910390a250610b20565b60018160030160016101000a81548160ff0219169083151502179055505f600282600101546109ce9190611913565b90508060055f8282546109e19190611824565b925050819055508082600101546109f891906116dc565b60025f845f015f9054906101000a900473ffffffffffffffffffffffffffffffffffffffff1673ffffffffffffffffffffffffffffffffffffffff1673ffffffffffffffffffffffffffffffffffffffff1681526020019081526020015f205f015f828254610a679190611824565b925050819055508060025f845f015f9054906101000a900473ffffffffffffffffffffffffffffffffffffffff1673ffffffffffffffffffffffffffffffffffffffff1673ffffffffffffffffffffffffffffffffffffffff1681526020019081526020015f206002015f828254610adf9190611824565b92505081905550847ff0617bc16bb7bb26c41bc2310f80d7b1399aed8bf360290984d32faba46cb85a82604051610b169190611310565b60405180910390a2505b4260025f835f015f9054906101000a900473ffffffffffffffffffffffffffffffffffffffff1673ffffffffffffffffffffffffffffffffffffffff1673ffffffffffffffffffffffffffffffffffffffff1681526020019081526020015f206001018190555050610b906111a0565b505050565b610b9d6111a9565b610ba65f611230565b565b6003602052805f5260405f205f91509050805f015f9054906101000a900473ffffffffffffffffffffffffffffffffffffffff1690806001015490806002015490806003015f9054906101000a900460ff16908060030160019054906101000a900460ff16908060040154905086565b5f5f5f9054906101000a900473ffffffffffffffffffffffffffffffffffffffff16905090565b610c4761115a565b5f8111610c89576040517f08c379a0000000000000000000000000000000000000000000000000000000008152600401610c809061198d565b60405180910390fd5b5f60025f3373ffffffffffffffffffffffffffffffffffffffff1673ffffffffffffffffffffffffffffffffffffffff1681526020019081526020015f205f01541115610d1d57610cd933610f0c565b60025f3373ffffffffffffffffffffffffffffffffffffffff1673ffffffffffffffffffffffffffffffffffffffff1681526020019081526020015f205f01819055505b7f000000000000000000000000000000000000000000000000000000000000000073ffffffffffffffffffffffffffffffffffffffff166323b872dd3330846040518463ffffffff1660e01b8152600401610d7a939291906119ab565b6020604051808303815f875af1158015610d96573d5f5f3e3d5ffd5b505050506040513d601f19601f82011682018060405250810190610dba919061174a565b508060025f3373ffffffffffffffffffffffffffffffffffffffff1673ffffffffffffffffffffffffffffffffffffffff1681526020019081526020015f205f015f828254610e099190611824565b925050819055504260025f3373ffffffffffffffffffffffffffffffffffffffff1673ffffffffffffffffffffffffffffffffffffffff1681526020019081526020015f2060010181905550600160025f3373ffffffffffffffffffffffffffffffffffffffff1673ffffffffffffffffffffffffffffffffffffffff1681526020019081526020015f206004015f6101000a81548160ff0219169083151502179055503373ffffffffffffffffffffffffffffffffffffffff167fd1abf1173d9287eccea1d3061b4c7a49b9d2be69ec0990f830c3e8a0f20a7d9082604051610ef39190611310565b60405180910390a2610f036111a0565b50565b60055481565b5f5f60025f8473ffffffffffffffffffffffffffffffffffffffff1673ffffffffffffffffffffffffffffffffffffffff1681526020019081526020015f206040518060a00160405290815f8201548152602001600182015481526020016002820154815260200160038201548152602001600482015f9054906101000a900460ff16151515158152505090505f815f015103610fac575f915050611076565b5f816020015142610fbd91906116dc565b90505f6301e13380612710610fd291906119e0565b826101f4855f0151610fe491906119e0565b610fee91906119e0565b610ff89190611913565b90505f5f905062278d008311156110425761271062278d008461101b9190611913565b6064865f015161102b91906119e0565b61103591906119e0565b61103f9190611913565b90505b5f82855f01516110529190611824565b9050818111611061575f61106e565b818161106d91906116dc565b5b955050505050505b919050565b60045481565b5f600554905090565b6301e1338081565b6101f481565b6110a06111a9565b5f73ffffffffffffffffffffffffffffffffffffffff168173ffffffffffffffffffffffffffffffffffffffff1603611110575f6040517f1e4fbdf70000000000000000000000000000000000000000000000000000000081526004016111079190611578565b60405180910390fd5b61111981611230565b50565b6002602052805f5260405f205f91509050805f015490806001015490806002015490806003015490806004015f9054906101000a900460ff16905085565b600260015403611196576040517f3ee5aeb500000000000000000000000000000000000000000000000000000000815260040160405180910390fd5b6002600181905550565b60018081905550565b6111b16112f1565b73ffffffffffffffffffffffffffffffffffffffff166111cf610c18565b73ffffffffffffffffffffffffffffffffffffffff161461122e576111f26112f1565b6040517f118cdaa70000000000000000000000000000000000000000000000000000000081526004016112259190611578565b60405180910390fd5b565b5f5f5f9054906101000a900473ffffffffffffffffffffffffffffffffffffffff169050815f5f6101000a81548173ffffffffffffffffffffffffffffffffffffffff021916908373ffffffffffffffffffffffffffffffffffffffff1602179055508173ffffffffffffffffffffffffffffffffffffffff168173ffffffffffffffffffffffffffffffffffffffff167f8be0079c531659141344cd1fd0a4f28419497f9722a3daafe3b4186f6b6457e060405160405180910390a35050565b5f33905090565b5f819050919050565b61130a816112f8565b82525050565b5f6020820190506113235f830184611301565b92915050565b5f5ffd5b611336816112f8565b8114611340575f5ffd5b50565b5f813590506113518161132d565b92915050565b5f6020828403121561136c5761136b611329565b5b5f61137984828501611343565b91505092915050565b5f5f5f6060848603121561139957611398611329565b5b5f6113a686828701611343565b93505060206113b786828701611343565b92505060406113c886828701611343565b9150509250925092565b5f73ffffffffffffffffffffffffffffffffffffffff82169050919050565b5f819050919050565b5f61141461140f61140a846113d2565b6113f1565b6113d2565b9050919050565b5f611425826113fa565b9050919050565b5f6114368261141b565b9050919050565b6114468161142c565b82525050565b5f60208201905061145f5f83018461143d565b92915050565b5f8115159050919050565b61147981611465565b8114611483575f5ffd5b50565b5f8135905061149481611470565b92915050565b5f5f5f606084860312156114b1576114b0611329565b5b5f6114be86828701611343565b93505060206114cf86828701611486565b92505060406114e086828701611343565b9150509250925092565b5f6114f4826113d2565b9050919050565b611504816114ea565b82525050565b61151381611465565b82525050565b5f60c08201905061152c5f8301896114fb565b6115396020830188611301565b6115466040830187611301565b611553606083018661150a565b611560608083018561150a565b61156d60a0830184611301565b979650505050505050565b5f60208201905061158b5f8301846114fb565b92915050565b61159a816114ea565b81146115a4575f5ffd5b50565b5f813590506115b581611591565b92915050565b5f602082840312156115d0576115cf611329565b5b5f6115dd848285016115a7565b91505092915050565b5f60a0820190506115f95f830188611301565b6116066020830187611301565b6116136040830186611301565b6116206060830185611301565b61162d608083018461150a565b9695505050505050565b5f82825260208201905092915050565b7f496e73756666696369656e742062616c616e63650000000000000000000000005f82015250565b5f61167b601483611637565b915061168682611647565b602082019050919050565b5f6020820190508181035f8301526116a88161166f565b9050919050565b7f4e487b71000000000000000000000000000000000000000000000000000000005f52601160045260245ffd5b5f6116e6826112f8565b91506116f1836112f8565b9250828203905081811115611709576117086116af565b5b92915050565b5f6040820190506117225f8301856114fb565b61172f6020830184611301565b9392505050565b5f8151905061174481611470565b92915050565b5f6020828403121561175f5761175e611329565b5b5f61176c84828501611736565b91505092915050565b7f496e73756666696369656e7420626f6e640000000000000000000000000000005f82015250565b5f6117a9601183611637565b91506117b482611775565b602082019050919050565b5f6020820190508181035f8301526117d68161179d565b9050919050565b5f6117e7826112f8565b91507fffffffffffffffffffffffffffffffffffffffffffffffffffffffffffffffff8203611819576118186116af565b5b600182019050919050565b5f61182e826112f8565b9150611839836112f8565b9250828201905080821115611851576118506116af565b5b92915050565b7f5461736b20616c726561647920736574746c65640000000000000000000000005f82015250565b5f61188b601483611637565b915061189682611857565b602082019050919050565b5f6020820190508181035f8301526118b88161187f565b9050919050565b5f6040820190506118d25f830185611301565b6118df6020830184611301565b9392505050565b7f4e487b71000000000000000000000000000000000000000000000000000000005f52601260045260245ffd5b5f61191d826112f8565b9150611928836112f8565b925082611938576119376118e6565b5b828204905092915050565b7f416d6f756e74206d757374206265203e203000000000000000000000000000005f82015250565b5f611977601283611637565b915061198282611943565b602082019050919050565b5f6020820190508181035f8301526119a48161196b565b9050919050565b5f6060820190506119be5f8301866114fb565b6119cb60208301856114fb565b6119d86040830184611301565b949350505050565b5f6119ea826112f8565b91506119f5836112f8565b9250828202611a03816112f8565b91508282048414831517611a1a57611a196116af565b5b509291505056fea2646970667358221220390bf9aa8b29e99c2bc8ce72e3630db05e86c1b86e7b24db2d447080886626fa64736f6c634300081e0033","linkReferences":{}},"methodIdentifiers":{"DECAY_RATE()":"1de40e49","SECONDS_PER_MONTH()":"10786deb","SECONDS_PER_YEAR()":"e6a69ab8","YIELD_RATE()":"e852090a","acceptTask(uint256,uint256,uint256)":"2fc01da4","agents(address)":"fd66091e","finishTask(uint256,bool,uint256)":"4e3a75a5","getEffectiveBond(address)":"b69c25b3","getInsurancePool()":"d0d5665b","insurancePool()":"ab2adc00","owner()":"8da5cb5b","renounceOwnership()":"715018a6","stake(uint256)":"a694fc3a","taskCount()":"b6cb58a5","tasks(uint256)":"8d977672","transferOwnership(address)":"f2fde38b","usdc()":"3e413bee","withdraw(uint256)":"2e1a7d4d"},"id":5}