{"abi":[{"type":"constructor","inputs":[],"stateMutability":"nonpayable"},{"type":"function","name":"approve","inputs":[{"name":"to","type":"address","internalType":"address"},{"name":"tokenId","type":"uint256","internalType":"uint256"}],"outputs":[],"stateMutability":"nonpayable"},{"type":"function","name":"balanceOf","inputs":[{"name":"owner","type":"address","internalType":"address"}],"outputs":[{"name":"","type":"uint256","internalType":"uint256"}],"stateMutability":"view"},{"type":"function","name":"getApproved","inputs":[{"name":"tokenId","type":"uint256","internalType":"uint256"}],"outputs":[{"name":"","type":"address","internalType":"address"}],"stateMutability":"view"},{"type":"function","name":"isApprovedForAll","inputs":[{"name":"owner","type":"address","internalType":"address"},{"name":"operator","type":"address","internalType":"address"}],"outputs":[{"name":"","type":"bool","internalType":"bool"}],"stateMutability":"view"},{"type":"function","name":"name","inputs":[],"outputs":[{"name":"","type":"string","internalType":"string"}],"stateMutability":"view"},{"type":"function","name":"owner","inputs":[],"outputs":[{"name":"","type":"address","internalType":"address"}],"stateMutability":"view"},{"type":"function","name":"ownerOf","inputs":[{"name":"tokenId","type":"uint256","internalType":"uint256"}],"outputs":[{"name":"","type":"address","internalType":"address"}],"stateMutability":"view"},{"type":"function","name":"renounceOwnership","inputs":[],"outputs":[],"stateMutability":"nonpayable"},{"type":"function","name":"safeMint","inputs":[{"name":"to","type":"address","internalType":"address"},{"name":"uri","type":"string","internalType":"string"}],"outputs":[],"stateMutability":"nonpayable"},{"type":"function","name":"safeTransferFrom","inputs":[{"name":"from","type":"address","internalType":"address"},{"name":"to","type":"address","internalType":"address"},{"name":"tokenId","type":"uint256","internalType":"uint256"}],"outputs":[],"stateMutability":"nonpayable"},{"type":"function","name":"safeTransferFrom","inputs":[{"name":"from","type":"address","internalType":"address"},{"name":"to","type":"address","internalType":"address"},{"name":"tokenId","type":"uint256","internalType":"uint256"},{"name":"data","type":"bytes","internalType":"bytes"}],"outputs":[],"stateMutability":"nonpayable"},{"type":"function","name":"setApprovalForAll","inputs":[{"name":"operator","type":"address","internalType":"address"},{"name":"approved","type":"bool","internalType":"bool"}],"outputs":[],"stateMutability":"nonpayable"},{"type":"function","name":"setVault","inputs":[{"name":"_vault","type":"address","internalType":"address"}],"outputs":[],"stateMutability":"nonpayable"},{"type":"function","name":"supportsInterface","inputs":[{"name":"interfaceId","type":"bytes4","internalType":"bytes4"}],"outputs":[{"name":"","type":"bool","internalType":"bool"}],"stateMutability":"view"},{"type":"function","name":"symbol","inputs":[],"outputs":[{"name":"","type":"string","internalType":"string"}],"stateMutability":"view"},{"type":"function","name":"tokenByIndex","inputs":[{"name":"index","type":"uint256","internalType":"uint256"}],"outputs":[{"name":"","type":"uint256","internalType":"uint256"}],"stateMutability":"view"},{"type":"function","name":"tokenOfOwnerByIndex","inputs":[{"name":"owner","type":"address","internalType":"address"},{"name":"index","type":"uint256","internalType":"uint256"}],"outputs":[{"name":"","type":"uint256","internalType":"uint256"}],"stateMutability":"view"},{"type":"function","name":"tokenURI","inputs":[{"name":"tokenId","type":"uint256","internalType":"uint256"}],"outputs":[{"name":"","type":"string","internalType":"string"}],"stateMutability":"view"},{"type":"function","name":"totalSupply","inputs":[],"outputs":[{"name":"","type":"uint256","internalType":"uint256"}],"stateMutability":"view"},{"type":"function","name":"transferFrom","inputs":[{"name":"from","type":"address","internalType":"address"},{"name":"to","type":"address","internalType":"address"},{"name":"tokenId","type":"uint256","internalType":"uint256"}],"outputs":[],"stateMutability":"nonpayable"},{"type":"function","name":"transferOwnership","inputs":[{"name":"newOwner","type":"address","internalType":"address"}],"outputs":[],"stateMutability":"nonpayable"},{"type":"function","name":"vault","inputs":[],"outputs":[{"name":"","type":"address","internalType":"address"}],"stateMutability":"view"},{"type":"event","name":"Approval","inputs":[{"name":"owner","type":"address","indexed":true,"internalType":"address"},{"name":"approved","type":"address","indexed":true,"internalType":"address"},{"name":"tokenId","type":"uint256","indexed":true,"internalType":"uint256"}],"anonymous":false},{"type":"event","name":"ApprovalForAll","inputs":[{"name":"owner","type":"address","indexed":true,"internalType":"address"},{"name":"operator","type":"address","indexed":true,"internalType":"address"},{"name":"approved","type":"bool","indexed":false,"internalType":"bool"}],"anonymous":false},{"type":"event","name":"BatchMetadataUpdate","inputs":[{"name":"_fromTokenId","type":"uint256","indexed":false,"internalType":"uint256"},{"name":"_toTokenId","type":"uint256","indexed":false,"internalType":"uint256"}],"anonymous":false},{"type":"event","name":"MetadataUpdate","inputs":[{"name":"_tokenId","type":"uint256","indexed":false,"internalType":"uint256"}],"anonymous":false},{"type":"event","name":"OwnershipTransferred","inputs":[{"name":"previousOwner","type":"address","indexed":true,"internalType":"address"},{"name":"newOwner","type":"address","indexed":true,"internalType":"address"}],"anonymous":false},{"type":"event","name":"Transfer","inputs":[{"name":"from","type":"address","indexed":true,"internalType":"address"},{"name":"to","type":"address","indexed":true,"internalType":"address"},{"name":"tokenId","type":"uint256","indexed":true,"internalType":"uint256"}],"anonymous":false},{"type":"error","name":"ERC721EnumerableForbiddenBatchMint","inputs":[]},{"type":"error","name":"ERC721IncorrectOwner","inputs":[{"name":"sender","type":"address","internalType":"address"},{"name":"tokenId","type":"uint256","internalType":"uint256"},{"name":"owner","type":"address","internalType":"address"}]},{"type":"error","name":"ERC721InsufficientApproval","inputs":[{"name":"operator","type":"address","internalType":"address"},{"name":"tokenId","type":"uint256","internalType":"uint256"}]},{"type":"error","name":"ERC721InvalidApprover","inputs":[{"name":"approver","type":"address","internalType":"address"}]},{"type":"error","name":"ERC721InvalidOperator","inputs":[{"name":"operator","type":"address","internalType":"address"}]},{"type":"error","name":"ERC721InvalidOwner","inputs":[{"name":"owner","type":"address","internalType":"address"}]},{"type":"error","name":"ERC721InvalidReceiver","inputs":[{"name":"receiver","type":"address","internalType":"address"}]},{"type":"error","name":"ERC721InvalidSender","inputs":[{"name":"sender","type":"address","internalType":"address"}]},{"type":"error","name":"ERC721NonexistentToken","inputs":[{"name":"tokenId","type":"uint256","internalType":"uint256"}]},{"type":"error","name":"ERC721OutOfBoundsIndex","inputs":[{"name":"owner","type":"address","internalType":"address"},{"name":"index","type":"uint256","internalType":"uint256"}]},{"type":"error","name":"OwnableInvalidOwner","inputs":[{"name":"owner","type":"address","internalType":"address"}]},{"type":"error","name":"OwnableUnauthorizedAccount","inputs":[{"name":"account","type":"address","internalType":"address"}]}],"bytecode":{"object":"0x608060405234801561000f575f5ffd5b50336040518060400160405280601281526020017f4e656f6e536c61736820477561726469616e00000000000000000000000000008152506040518060400160405280600381526020017f4e53470000000000000000000000000000000000000000000000000000000000815250815f908161008b9190610423565b50806001908161009b9190610423565b5050505f73ffffffffffffffffffffffffffffffffffffffff168173ffffffffffffffffffffffffffffffffffffffff160361010e575f6040517f1e4fbdf70000000000000000000000000000000000000000000000000000000081526004016101059190610531565b60405180910390fd5b61011d8161012360201b60201c565b5061054a565b5f600b5f9054906101000a900473ffffffffffffffffffffffffffffffffffffffff16905081600b5f6101000a81548173ffffffffffffffffffffffffffffffffffffffff021916908373ffffffffffffffffffffffffffffffffffffffff1602179055508173ffffffffffffffffffffffffffffffffffffffff168173ffffffffffffffffffffffffffffffffffffffff167f8be0079c531659141344cd1fd0a4f28419497f9722a3daafe3b4186f6b6457e060405160405180910390a35050565b5f81519050919050565b7f4e487b71000000000000000000000000000000000000000000000000000000005f52604160045260245ffd5b7f4e487b71000000000000000000000000000000000000000000000000000000005f52602260045260245ffd5b5f600282049050600182168061026157607f821691505b6020821081036102745761027361021d565b5b50919050565b5f819050815f5260205f209050919050565b5f6020601f8301049050919050565b5f82821b905092915050565b5f600883026102d67fffffffffffffffffffffffffffffffffffffffffffffffffffffffffffffffff8261029b565b6102e0868361029b565b95508019841693508086168417925050509392505050565b5f819050919050565b5f819050919050565b5f61032461031f61031a846102f8565b610301565b6102f8565b9050919050565b5f819050919050565b61033d8361030a565b6103516103498261032b565b8484546102a7565b825550505050565b5f5f905090565b610368610359565b610373818484610334565b505050565b5b818110156103965761038b5f82610360565b600181019050610379565b5050565b601f8211156103db576103ac8161027a565b6103b58461028c565b810160208510156103c4578190505b6103d86103d08561028c565b830182610378565b50505b505050565b5f82821c905092915050565b5f6103fb5f19846008026103e0565b1980831691505092915050565b5f61041383836103ec565b9150826002028217905092915050565b61042c826101e6565b67ffffffffffffffff811115610445576104446101f0565b5b61044f825461024a565b61045a82828561039a565b5f60209050601f83116001811461048b575f8415610479578287015190505b6104838582610408565b8655506104ea565b601f1984166104998661027a565b5f5b828110156104c05784890151825560018201915060208501945060208101905061049b565b868310156104dd57848901516104d9601f8916826103ec565b8355505b6001600288020188555050505b505050505050565b5f73ffffffffffffffffffffffffffffffffffffffff82169050919050565b5f61051b826104f2565b9050919050565b61052b81610511565b82525050565b5f6020820190506105445f830184610522565b92915050565b612ddc806105575f395ff3fe608060405234801561000f575f5ffd5b5060043610610140575f3560e01c806370a08231116100b6578063b88d4fde1161007a578063b88d4fde14610372578063c87b56dd1461038e578063d204c45e146103be578063e985e9c5146103da578063f2fde38b1461040a578063fbfa77cf1461042657610140565b806370a08231146102e0578063715018a6146103105780638da5cb5b1461031a57806395d89b4114610338578063a22cb4651461035657610140565b806323b872dd1161010857806323b872dd146101fc5780632f745c591461021857806342842e0e146102485780634f6ccce7146102645780636352211e146102945780636817031b146102c457610140565b806301ffc9a71461014457806306fdde0314610174578063081812fc14610192578063095ea7b3146101c257806318160ddd146101de575b5f5ffd5b61015e600480360381019061015991906121b7565b610444565b60405161016b91906121fc565b60405180910390f35b61017c610455565b6040516101899190612285565b60405180910390f35b6101ac60048036038101906101a791906122d8565b6104e4565b6040516101b99190612342565b60405180910390f35b6101dc60048036038101906101d79190612385565b6104ff565b005b6101e6610515565b6040516101f391906123d2565b60405180910390f35b610216600480360381019061021191906123eb565b610521565b005b610232600480360381019061022d9190612385565b610620565b60405161023f91906123d2565b60405180910390f35b610262600480360381019061025d91906123eb565b6106c4565b005b61027e600480360381019061027991906122d8565b6106e3565b60405161028b91906123d2565b60405180910390f35b6102ae60048036038101906102a991906122d8565b610755565b6040516102bb9190612342565b60405180910390f35b6102de60048036038101906102d9919061243b565b610766565b005b6102fa60048036038101906102f5919061243b565b6107b1565b60405161030791906123d2565b60405180910390f35b610318610867565b005b61032261087a565b60405161032f9190612342565b60405180910390f35b6103406108a2565b60405161034d9190612285565b60405180910390f35b610370600480360381019061036b9190612490565b610932565b005b61038c600480360381019061038791906125fa565b610948565b005b6103a860048036038101906103a391906122d8565b61096d565b6040516103b59190612285565b60405180910390f35b6103d860048036038101906103d39190612718565b61097f565b005b6103f460048036038101906103ef9190612772565b610a7d565b60405161040191906121fc565b60405180910390f35b610424600480360381019061041f919061243b565b610b0b565b005b61042e610b8f565b60405161043b9190612342565b60405180910390f35b5f61044e82610bb4565b9050919050565b60605f8054610463906127dd565b80601f016020809104026020016040519081016040528092919081815260200182805461048f906127dd565b80156104da5780601f106104b1576101008083540402835291602001916104da565b820191905f5260205f20905b8154815290600101906020018083116104bd57829003601f168201915b5050505050905090565b5f6104ee82610c14565b506104f882610c9a565b9050919050565b610511828261050c610cd3565b610cda565b5050565b5f600880549050905090565b5f73ffffffffffffffffffffffffffffffffffffffff168273ffffffffffffffffffffffffffffffffffffffff1603610591575f6040517f64a0ae920000000000000000000000000000000000000000000000000000000081526004016105889190612342565b60405180910390fd5b5f6105a4838361059f610cd3565b610cec565b90508373ffffffffffffffffffffffffffffffffffffffff168173ffffffffffffffffffffffffffffffffffffffff161461061a578382826040517f64283d7b0000000000000000000000000000000000000000000000000000000081526004016106119392919061280d565b60405180910390fd5b50505050565b5f61062a836107b1565b821061066f5782826040517fa57d13dc000000000000000000000000000000000000000000000000000000008152600401610666929190612842565b60405180910390fd5b60065f8473ffffffffffffffffffffffffffffffffffffffff1673ffffffffffffffffffffffffffffffffffffffff1681526020019081526020015f205f8381526020019081526020015f2054905092915050565b6106de83838360405180602001604052805f815250610948565b505050565b5f6106ec610515565b8210610731575f826040517fa57d13dc000000000000000000000000000000000000000000000000000000008152600401610728929190612842565b60405180910390fd5b6008828154811061074557610744612869565b5b905f5260205f2001549050919050565b5f61075f82610c14565b9050919050565b61076e610d01565b80600d5f6101000a81548173ffffffffffffffffffffffffffffffffffffffff021916908373ffffffffffffffffffffffffffffffffffffffff16021790555050565b5f5f73ffffffffffffffffffffffffffffffffffffffff168273ffffffffffffffffffffffffffffffffffffffff1603610822575f6040517f89c62b640000000000000000000000000000000000000000000000000000000081526004016108199190612342565b60405180910390fd5b60035f8373ffffffffffffffffffffffffffffffffffffffff1673ffffffffffffffffffffffffffffffffffffffff1681526020019081526020015f20549050919050565b61086f610d01565b6108785f610d88565b565b5f600b5f9054906101000a900473ffffffffffffffffffffffffffffffffffffffff16905090565b6060600180546108b1906127dd565b80601f01602080910402602001604051908101604052809291908181526020018280546108dd906127dd565b80156109285780601f106108ff57610100808354040283529160200191610928565b820191905f5260205f20905b81548152906001019060200180831161090b57829003601f168201915b5050505050905090565b61094461093d610cd3565b8383610e4b565b5050565b610953848484610521565b61096761095e610cd3565b85858585610fb4565b50505050565b606061097882611160565b9050919050565b61098761087a565b73ffffffffffffffffffffffffffffffffffffffff163373ffffffffffffffffffffffffffffffffffffffff161480610a0c5750600d5f9054906101000a900473ffffffffffffffffffffffffffffffffffffffff1673ffffffffffffffffffffffffffffffffffffffff163373ffffffffffffffffffffffffffffffffffffffff16145b610a4b576040517f08c379a0000000000000000000000000000000000000000000000000000000008152600401610a42906128e0565b60405180910390fd5b5f600c5f815480929190610a5e9061292b565b919050559050610a6e838261126b565b610a788183611288565b505050565b5f60055f8473ffffffffffffffffffffffffffffffffffffffff1673ffffffffffffffffffffffffffffffffffffffff1681526020019081526020015f205f8373ffffffffffffffffffffffffffffffffffffffff1673ffffffffffffffffffffffffffffffffffffffff1681526020019081526020015f205f9054906101000a900460ff16905092915050565b610b13610d01565b5f73ffffffffffffffffffffffffffffffffffffffff168173ffffffffffffffffffffffffffffffffffffffff1603610b83575f6040517f1e4fbdf7000000000000000000000000000000000000000000000000000000008152600401610b7a9190612342565b60405180910390fd5b610b8c81610d88565b50565b600d5f9054906101000a900473ffffffffffffffffffffffffffffffffffffffff1681565b5f634906490660e01b7bffffffffffffffffffffffffffffffffffffffffffffffffffffffff1916827bffffffffffffffffffffffffffffffffffffffffffffffffffffffff19161480610c0d5750610c0c826112e2565b5b9050919050565b5f5f610c1f8361135b565b90505f73ffffffffffffffffffffffffffffffffffffffff168173ffffffffffffffffffffffffffffffffffffffff1603610c9157826040517f7e273289000000000000000000000000000000000000000000000000000000008152600401610c8891906123d2565b60405180910390fd5b80915050919050565b5f60045f8381526020019081526020015f205f9054906101000a900473ffffffffffffffffffffffffffffffffffffffff169050919050565b5f33905090565b610ce78383836001611394565b505050565b5f610cf8848484611553565b90509392505050565b610d09610cd3565b73ffffffffffffffffffffffffffffffffffffffff16610d2761087a565b73ffffffffffffffffffffffffffffffffffffffff1614610d8657610d4a610cd3565b6040517f118cdaa7000000000000000000000000000000000000000000000000000000008152600401610d7d9190612342565b60405180910390fd5b565b5f600b5f9054906101000a900473ffffffffffffffffffffffffffffffffffffffff16905081600b5f6101000a81548173ffffffffffffffffffffffffffffffffffffffff021916908373ffffffffffffffffffffffffffffffffffffffff1602179055508173ffffffffffffffffffffffffffffffffffffffff168173ffffffffffffffffffffffffffffffffffffffff167f8be0079c531659141344cd1fd0a4f28419497f9722a3daafe3b4186f6b6457e060405160405180910390a35050565b5f73ffffffffffffffffffffffffffffffffffffffff168273ffffffffffffffffffffffffffffffffffffffff1603610ebb57816040517f5b08ba18000000000000000000000000000000000000000000000000000000008152600401610eb29190612342565b60405180910390fd5b8060055f8573ffffffffffffffffffffffffffffffffffffffff1673ffffffffffffffffffffffffffffffffffffffff1681526020019081526020015f205f8473ffffffffffffffffffffffffffffffffffffffff1673ffffffffffffffffffffffffffffffffffffffff1681526020019081526020015f205f6101000a81548160ff0219169083151502179055508173ffffffffffffffffffffffffffffffffffffffff168373ffffffffffffffffffffffffffffffffffffffff167f17307eab39ab6107e8899845ad3d59bd9653f200f220920489ca2b5937696c3183604051610fa791906121fc565b60405180910390a3505050565b5f8373ffffffffffffffffffffffffffffffffffffffff163b1115611159578273ffffffffffffffffffffffffffffffffffffffff1663150b7a02868685856040518563ffffffff1660e01b815260040161101294939291906129c4565b6020604051808303815f875af192505050801561104d57506040513d601f19601f8201168201806040525081019061104a9190612a22565b60015b6110ce573d805f811461107b576040519150601f19603f3d011682016040523d82523d5f602084013e611080565b606091505b505f8151036110c657836040517f64a0ae920000000000000000000000000000000000000000000000000000000081526004016110bd9190612342565b60405180910390fd5b805160208201fd5b63150b7a0260e01b7bffffffffffffffffffffffffffffffffffffffffffffffffffffffff1916817bffffffffffffffffffffffffffffffffffffffffffffffffffffffff19161461115757836040517f64a0ae9200000000000000000000000000000000000000000000000000000000815260040161114e9190612342565b60405180910390fd5b505b5050505050565b606061116b82610c14565b505f600a5f8481526020019081526020015f208054611189906127dd565b80601f01602080910402602001604051908101604052809291908181526020018280546111b5906127dd565b80156112005780601f106111d757610100808354040283529160200191611200565b820191905f5260205f20905b8154815290600101906020018083116111e357829003601f168201915b505050505090505f61121061166d565b90505f815103611224578192505050611266565b5f82511115611258578082604051602001611240929190612a87565b60405160208183030381529060405292505050611266565b61126184611683565b925050505b919050565b611284828260405180602001604052805f8152506116e9565b5050565b80600a5f8481526020019081526020015f2090816112a69190612c4a565b507ff8e1a15aba9398e019f0b49df1a4fde98ee17ae345cb5f6b5e2c27f5033e8ce7826040516112d691906123d2565b60405180910390a15050565b5f7f780e9d63000000000000000000000000000000000000000000000000000000007bffffffffffffffffffffffffffffffffffffffffffffffffffffffff1916827bffffffffffffffffffffffffffffffffffffffffffffffffffffffff1916148061135457506113538261170c565b5b9050919050565b5f60025f8381526020019081526020015f205f9054906101000a900473ffffffffffffffffffffffffffffffffffffffff169050919050565b80806113cc57505f73ffffffffffffffffffffffffffffffffffffffff168273ffffffffffffffffffffffffffffffffffffffff1614155b156114fe575f6113db84610c14565b90505f73ffffffffffffffffffffffffffffffffffffffff168373ffffffffffffffffffffffffffffffffffffffff161415801561144557508273ffffffffffffffffffffffffffffffffffffffff168173ffffffffffffffffffffffffffffffffffffffff1614155b801561145857506114568184610a7d565b155b1561149a57826040517fa9fbf51f0000000000000000000000000000000000000000000000000000000081526004016114919190612342565b60405180910390fd5b81156114fc57838573ffffffffffffffffffffffffffffffffffffffff168273ffffffffffffffffffffffffffffffffffffffff167f8c5be1e5ebec7d5bd14f71427d1e84f3dd0314c0f7b2291e5b200ac8c7c3b92560405160405180910390a45b505b8360045f8581526020019081526020015f205f6101000a81548173ffffffffffffffffffffffffffffffffffffffff021916908373ffffffffffffffffffffffffffffffffffffffff16021790555050505050565b5f5f6115608585856117ed565b90505f73ffffffffffffffffffffffffffffffffffffffff168173ffffffffffffffffffffffffffffffffffffffff16036115a35761159e846119f8565b6115e2565b8473ffffffffffffffffffffffffffffffffffffffff168173ffffffffffffffffffffffffffffffffffffffff16146115e1576115e08185611a3c565b5b5b5f73ffffffffffffffffffffffffffffffffffffffff168573ffffffffffffffffffffffffffffffffffffffff16036116235761161e84611b13565b611662565b8473ffffffffffffffffffffffffffffffffffffffff168173ffffffffffffffffffffffffffffffffffffffff1614611661576116608585611bd3565b5b5b809150509392505050565b606060405180602001604052805f815250905090565b606061168e82610c14565b505f61169861166d565b90505f8151116116b65760405180602001604052805f8152506116e1565b806116c084611c57565b6040516020016116d1929190612a87565b6040516020818303038152906040525b915050919050565b6116f38383611d21565b6117076116fe610cd3565b5f858585610fb4565b505050565b5f7f80ac58cd000000000000000000000000000000000000000000000000000000007bffffffffffffffffffffffffffffffffffffffffffffffffffffffff1916827bffffffffffffffffffffffffffffffffffffffffffffffffffffffff191614806117d657507f5b5e139f000000000000000000000000000000000000000000000000000000007bffffffffffffffffffffffffffffffffffffffffffffffffffffffff1916827bffffffffffffffffffffffffffffffffffffffffffffffffffffffff1916145b806117e657506117e582611e14565b5b9050919050565b5f5f6117f88461135b565b90505f73ffffffffffffffffffffffffffffffffffffffff168373ffffffffffffffffffffffffffffffffffffffff161461183957611838818486611e7d565b5b5f73ffffffffffffffffffffffffffffffffffffffff168173ffffffffffffffffffffffffffffffffffffffff16146118c4576118785f855f5f611394565b600160035f8373ffffffffffffffffffffffffffffffffffffffff1673ffffffffffffffffffffffffffffffffffffffff1681526020019081526020015f205f82825403925050819055505b5f73ffffffffffffffffffffffffffffffffffffffff168573ffffffffffffffffffffffffffffffffffffffff161461194357600160035f8773ffffffffffffffffffffffffffffffffffffffff1673ffffffffffffffffffffffffffffffffffffffff1681526020019081526020015f205f82825401925050819055505b8460025f8681526020019081526020015f205f6101000a81548173ffffffffffffffffffffffffffffffffffffffff021916908373ffffffffffffffffffffffffffffffffffffffff160217905550838573ffffffffffffffffffffffffffffffffffffffff168273ffffffffffffffffffffffffffffffffffffffff167fddf252ad1be2c89b69c2b068fc378daa952ba7f163c4a11628f55a4df523b3ef60405160405180910390a4809150509392505050565b60088054905060095f8381526020019081526020015f2081905550600881908060018154018082558091505060019003905f5260205f20015f909190919091505550565b5f611a46836107b1565b90505f60075f8481526020019081526020015f205490505f60065f8673ffffffffffffffffffffffffffffffffffffffff1673ffffffffffffffffffffffffffffffffffffffff1681526020019081526020015f209050828214611ae5575f815f8581526020019081526020015f2054905080825f8581526020019081526020015f20819055508260075f8381526020019081526020015f2081905550505b60075f8581526020019081526020015f205f9055805f8481526020019081526020015f205f90555050505050565b5f6001600880549050611b269190612d19565b90505f60095f8481526020019081526020015f205490505f60088381548110611b5257611b51612869565b5b905f5260205f20015490508060088381548110611b7257611b71612869565b5b905f5260205f2001819055508160095f8381526020019081526020015f208190555060095f8581526020019081526020015f205f90556008805480611bba57611bb9612d4c565b5b600190038181905f5260205f20015f9055905550505050565b5f6001611bdf846107b1565b611be99190612d19565b90508160065f8573ffffffffffffffffffffffffffffffffffffffff1673ffffffffffffffffffffffffffffffffffffffff1681526020019081526020015f205f8381526020019081526020015f20819055508060075f8481526020019081526020015f2081905550505050565b60605f6001611c6584611f40565b0190505f8167ffffffffffffffff811115611c8357611c826124d6565b5b6040519080825280601f01601f191660200182016040528015611cb55781602001600182028036833780820191505090505b5090505f82602083010190505b600115611d16578080600190039150507f3031323334353637383961626364656600000000000000000000000000000000600a86061a8153600a8581611d0b57611d0a612d79565b5b0494505f8503611cc2575b819350505050919050565b5f73ffffffffffffffffffffffffffffffffffffffff168273ffffffffffffffffffffffffffffffffffffffff1603611d91575f6040517f64a0ae92000000000000000000000000000000000000000000000000000000008152600401611d889190612342565b60405180910390fd5b5f611d9d83835f610cec565b90505f73ffffffffffffffffffffffffffffffffffffffff168173ffffffffffffffffffffffffffffffffffffffff1614611e0f575f6040517f73c6ac6e000000000000000000000000000000000000000000000000000000008152600401611e069190612342565b60405180910390fd5b505050565b5f7f01ffc9a7000000000000000000000000000000000000000000000000000000007bffffffffffffffffffffffffffffffffffffffffffffffffffffffff1916827bffffffffffffffffffffffffffffffffffffffffffffffffffffffff1916149050919050565b611e88838383612091565b611f3b575f73ffffffffffffffffffffffffffffffffffffffff168373ffffffffffffffffffffffffffffffffffffffff1603611efc57806040517f7e273289000000000000000000000000000000000000000000000000000000008152600401611ef391906123d2565b60405180910390fd5b81816040517f177e802f000000000000000000000000000000000000000000000000000000008152600401611f32929190612842565b60405180910390fd5b505050565b5f5f5f90507a184f03e93ff9f4daa797ed6e38ed64bf6a1f0100000000000000008310611f9c577a184f03e93ff9f4daa797ed6e38ed64bf6a1f0100000000000000008381611f9257611f91612d79565b5b0492506040810190505b6d04ee2d6d415b85acef81000000008310611fd9576d04ee2d6d415b85acef81000000008381611fcf57611fce612d79565b5b0492506020810190505b662386f26fc10000831061200857662386f26fc100008381611ffe57611ffd612d79565b5b0492506010810190505b6305f5e1008310612031576305f5e100838161202757612026612d79565b5b0492506008810190505b612710831061205657612710838161204c5761204b612d79565b5b0492506004810190505b60648310612079576064838161206f5761206e612d79565b5b0492506002810190505b600a8310612088576001810190505b80915050919050565b5f5f73ffffffffffffffffffffffffffffffffffffffff168373ffffffffffffffffffffffffffffffffffffffff161415801561214857508273ffffffffffffffffffffffffffffffffffffffff168473ffffffffffffffffffffffffffffffffffffffff16148061210957506121088484610a7d565b5b8061214757508273ffffffffffffffffffffffffffffffffffffffff1661212f83610c9a565b73ffffffffffffffffffffffffffffffffffffffff16145b5b90509392505050565b5f604051905090565b5f5ffd5b5f5ffd5b5f7fffffffff0000000000000000000000000000000000000000000000000000000082169050919050565b61219681612162565b81146121a0575f5ffd5b50565b5f813590506121b18161218d565b92915050565b5f602082840312156121cc576121cb61215a565b5b5f6121d9848285016121a3565b91505092915050565b5f8115159050919050565b6121f6816121e2565b82525050565b5f60208201905061220f5f8301846121ed565b92915050565b5f81519050919050565b5f82825260208201905092915050565b8281835e5f83830152505050565b5f601f19601f8301169050919050565b5f61225782612215565b612261818561221f565b935061227181856020860161222f565b61227a8161223d565b840191505092915050565b5f6020820190508181035f83015261229d818461224d565b905092915050565b5f819050919050565b6122b7816122a5565b81146122c1575f5ffd5b50565b5f813590506122d2816122ae565b92915050565b5f602082840312156122ed576122ec61215a565b5b5f6122fa848285016122c4565b91505092915050565b5f73ffffffffffffffffffffffffffffffffffffffff82169050919050565b5f61232c82612303565b9050919050565b61233c81612322565b82525050565b5f6020820190506123555f830184612333565b92915050565b61236481612322565b811461236e575f5ffd5b50565b5f8135905061237f8161235b565b92915050565b5f5f6040838503121561239b5761239a61215a565b5b5f6123a885828601612371565b92505060206123b9858286016122c4565b9150509250929050565b6123cc816122a5565b82525050565b5f6020820190506123e55f8301846123c3565b92915050565b5f5f5f606084860312156124025761240161215a565b5b5f61240f86828701612371565b935050602061242086828701612371565b9250506040612431868287016122c4565b9150509250925092565b5f602082840312156124505761244f61215a565b5b5f61245d84828501612371565b91505092915050565b61246f816121e2565b8114612479575f5ffd5b50565b5f8135905061248a81612466565b92915050565b5f5f604083850312156124a6576124a561215a565b5b5f6124b385828601612371565b92505060206124c48582860161247c565b9150509250929050565b5f5ffd5b5f5ffd5b7f4e487b71000000000000000000000000000000000000000000000000000000005f52604160045260245ffd5b61250c8261223d565b810181811067ffffffffffffffff8211171561252b5761252a6124d6565b5b80604052505050565b5f61253d612151565b90506125498282612503565b919050565b5f67ffffffffffffffff821115612568576125676124d6565b5b6125718261223d565b9050602081019050919050565b828183375f83830152505050565b5f61259e6125998461254e565b612534565b9050828152602081018484840111156125ba576125b96124d2565b5b6125c584828561257e565b509392505050565b5f82601f8301126125e1576125e06124ce565b5b81356125f184826020860161258c565b91505092915050565b5f5f5f5f608085870312156126125761261161215a565b5b5f61261f87828801612371565b945050602061263087828801612371565b9350506040612641878288016122c4565b925050606085013567ffffffffffffffff8111156126625761266161215e565b5b61266e878288016125cd565b91505092959194509250565b5f67ffffffffffffffff821115612694576126936124d6565b5b61269d8261223d565b9050602081019050919050565b5f6126bc6126b78461267a565b612534565b9050828152602081018484840111156126d8576126d76124d2565b5b6126e384828561257e565b509392505050565b5f82601f8301126126ff576126fe6124ce565b5b813561270f8482602086016126aa565b91505092915050565b5f5f6040838503121561272e5761272d61215a565b5b5f61273b85828601612371565b925050602083013567ffffffffffffffff81111561275c5761275b61215e565b5b612768858286016126eb565b9150509250929050565b5f5f604083850312156127885761278761215a565b5b5f61279585828601612371565b92505060206127a685828601612371565b9150509250929050565b7f4e487b71000000000000000000000000000000000000000000000000000000005f52602260045260245ffd5b5f60028204905060018216806127f457607f821691505b602082108103612807576128066127b0565b5b50919050565b5f6060820190506128205f830186612333565b61282d60208301856123c3565b61283a6040830184612333565b949350505050565b5f6040820190506128555f830185612333565b61286260208301846123c3565b9392505050565b7f4e487b71000000000000000000000000000000000000000000000000000000005f52603260045260245ffd5b7f4f6e6c79206f776e6572206f72207661756c742063616e206d696e74000000005f82015250565b5f6128ca601c8361221f565b91506128d582612896565b602082019050919050565b5f6020820190508181035f8301526128f7816128be565b9050919050565b7f4e487b71000000000000000000000000000000000000000000000000000000005f52601160045260245ffd5b5f612935826122a5565b91507fffffffffffffffffffffffffffffffffffffffffffffffffffffffffffffffff8203612967576129666128fe565b5b600182019050919050565b5f81519050919050565b5f82825260208201905092915050565b5f61299682612972565b6129a0818561297c565b93506129b081856020860161222f565b6129b98161223d565b840191505092915050565b5f6080820190506129d75f830187612333565b6129e46020830186612333565b6129f160408301856123c3565b8181036060830152612a03818461298c565b905095945050505050565b5f81519050612a1c8161218d565b92915050565b5f60208284031215612a3757612a3661215a565b5b5f612a4484828501612a0e565b91505092915050565b5f81905092915050565b5f612a6182612215565b612a6b8185612a4d565b9350612a7b81856020860161222f565b80840191505092915050565b5f612a928285612a57565b9150612a9e8284612a57565b91508190509392505050565b5f819050815f5260205f209050919050565b5f6020601f8301049050919050565b5f82821b905092915050565b5f60088302612b067fffffffffffffffffffffffffffffffffffffffffffffffffffffffffffffffff82612acb565b612b108683612acb565b95508019841693508086168417925050509392505050565b5f819050919050565b5f612b4b612b46612b41846122a5565b612b28565b6122a5565b9050919050565b5f819050919050565b612b6483612b31565b612b78612b7082612b52565b848454612ad7565b825550505050565b5f5f905090565b612b8f612b80565b612b9a818484612b5b565b505050565b5b81811015612bbd57612bb25f82612b87565b600181019050612ba0565b5050565b601f821115612c0257612bd381612aaa565b612bdc84612abc565b81016020851015612beb578190505b612bff612bf785612abc565b830182612b9f565b50505b505050565b5f82821c905092915050565b5f612c225f1984600802612c07565b1980831691505092915050565b5f612c3a8383612c13565b9150826002028217905092915050565b612c5382612215565b67ffffffffffffffff811115612c6c57612c6b6124d6565b5b612c7682546127dd565b612c81828285612bc1565b5f60209050601f831160018114612cb2575f8415612ca0578287015190505b612caa8582612c2f565b865550612d11565b601f198416612cc086612aaa565b5f5b82811015612ce757848901518255600182019150602085019450602081019050612cc2565b86831015612d045784890151612d00601f891682612c13565b8355505b6001600288020188555050505b505050505050565b5f612d23826122a5565b9150612d2e836122a5565b9250828203905081811115612d4657612d456128fe565b5b92915050565b7f4e487b71000000000000000000000000000000000000000000000000000000005f52603160045260245ffd5b7f4e487b71000000000000000000000000000000000000000000000000000000005f52601260045260245ffdfea264697066735822122054ff399026dd9899c8b6c419d56c93499207f85eca0c260ce322e81f72fe299a64736f6c634300081e0033","linkReferences":{}},"methodIdentifiers":{"approve(address,uint256)":"095ea7b3","balanceOf(address)":"70a08231","getApproved(uint256)":"081812fc","isApprovedForAll(address,address)":"e985e9c5","name()":"06fdde03","owner()":"8da5cb5b","ownerOf(uint256)":"6352211e","renounceOwnership()":"715018a6","safeMint(address,string)":"d204c45e","safeTransferFrom(address,address,uint256)":"42842e0e","safeTransferFrom(address,address,uint256,bytes)":"b88d4fde","setApprovalForAll(address,bool)":"a22cb465","setVault(address)":"6817031b","supportsInterface(bytes4)":"01ffc9a7","symbol()":"95d89b41","tokenByIndex(uint256)":"4f6ccce7","tokenOfOwnerByIndex(address,uint256)":"2f745c59","tokenURI(uint256)":"c87b56dd","totalSupply()":"18160ddd","transferFrom(address,address,uint256)":"23b872dd","transferOwnership(address)":"f2fde38b","vault()":"fbfa77cf"},"id":43}